{"abi":[{"type":"constructor","inputs":[{"name":"_name","type":"string","internalType":"string"},{"name":"_symbol","type":"string","internalType":"string"}],"stateMutability":"nonpayable"},{"type":"function","name":"approve","inputs":[{"name":"spender","type":"address","internalType":"address"},{"name":"id","type":"uint256","internalType":"uint256"}],"outputs":[],"stateMutability":"nonpayable"},{"type":"function","name":"balanceOf","inputs":[{"name":"owner","type":"address","internalType":"address"}],"outputs":[{"name":"","type":"uint256","internalType":"uint256"}],"stateMutability":"view"},{"type":"function","name":"burn","inputs":[{"name":"tokenId","type":"uint256","internalType":"uint256"}],"outputs":[],"stateMutability":"nonpayable"},{"type":"function","name":"getApproved","inputs":[{"name":"","type":"uint256","internalType":"uint256"}],"outputs":[{"name":"","type":"address","internalType":"address"}],"stateMutability":"view"},{"type":"function","name":"isApprovedForAll","inputs":[{"name":"","type":"address","internalType":"address"},{"name":"","type":"address","internalType":"address"}],"outputs":[{"name":"","type":"bool","internalType":"bool"}],"stateMutability":"view"},{"type":"function","name":"mint","inputs":[{"name":"to","type":"address","internalType":"address"},{"name":"tokenId","type":"uint256","internalType":"uint256"}],"outputs":[],"stateMutability":"nonpayable"},{"type":"function","name":"name","inputs":[],"outputs":[{"name":"","type":"string","internalType":"string"}],"stateMutability":"view"},{"type":"function","name":"ownerOf","inputs":[{"name":"id","type":"uint256","internalType":"uint256"}],"outputs":[{"name":"owner","type":"address","internalType":"address"}],"stateMutability":"view"},{"type":"function","name":"safeMint","inputs":[{"name":"to","type":"address","internalType":"address"},{"name":"tokenId","type":"uint256","internalType":"uint256"},{"name":"data","type":"bytes","internalType":"bytes"}],"outputs":[],"stateMutability":"nonpayable"},{"type":"function","name":"safeMint","inputs":[{"name":"to","type":"address","internalType":"address"},{"name":"tokenId","type":"uint256","internalType":"uint256"}],"outputs":[],"stateMutability":"nonpayable"},{"type":"function","name":"safeTransferFrom","inputs":[{"name":"from","type":"address","internalType":"address"},{"name":"to","type":"address","internalType":"address"},{"name":"id","type":"uint256","internalType":"uint256"}],"outputs":[],"stateMutability":"nonpayable"},{"type":"function","name":"safeTransferFrom","inputs":[{"name":"from","type":"address","internalType":"address"},{"name":"to","type":"address","internalType":"address"},{"name":"id","type":"uint256","internalType":"uint256"},{"name":"data","type":"bytes","internalType":"bytes"}],"outputs":[],"stateMutability":"nonpayable"},{"type":"function","name":"setApprovalForAll","inputs":[{"name":"operator","type":"address","internalType":"address"},{"name":"approved","type":"bool","internalType":"bool"}],"outputs":[],"stateMutability":"nonpayable"},{"type":"function","name":"supportsInterface","inputs":[{"name":"interfaceId","type":"bytes4","internalType":"bytes4"}],"outputs":[{"name":"","type":"bool","internalType":"bool"}],"stateMutability":"view"},{"type":"function","name":"symbol","inputs":[],"outputs":[{"name":"","type":"string","internalType":"string"}],"stateMutability":"view"},{"type":"function","name":"tokenURI","inputs":[{"name":"","type":"uint256","internalType":"uint256"}],"outputs":[{"name":"","type":"string","internalType":"string"}],"stateMutability":"pure"},{"type":"function","name":"transferFrom","inputs":[{"name":"from","type":"address","internalType":"address"},{"name":"to","type":"address","internalType":"address"},{"name":"id","type":"uint256","internalType":"uint256"}],"outputs":[],"stateMutability":"nonpayable"},{"type":"event","name":"Approval","inputs":[{"name":"owner","type":"address","indexed":true,"internalType":"address"},{"name":"spender","type":"address","indexed":true,"internalType":"address"},{"name":"id","type":"uint256","indexed":true,"internalType":"uint256"}],"anonymous":false},{"type":"event","name":"ApprovalForAll","inputs":[{"name":"owner","type":"address","indexed":true,"internalType":"address"},{"name":"operator","type":"address","indexed":true,"internalType":"address"},{"name":"approved","type":"bool","indexed":false,"internalType":"bool"}],"anonymous":false},{"type":"event","name":"Transfer","inputs":[{"name":"from","type":"address","indexed":true,"internalType":"address"},{"name":"to","type":"address","indexed":true,"internalType":"address"},{"name":"id","type":"uint256","indexed":true,"internalType":"uint256"}],"anonymous":false}],"bytecode":{"object":"0x5b60806040525f341415604b576300001af78038038091608039608081019081604052603f8113156048576080519082609f8301126801000000000000000083101661018a575b505b50505b5f80fd5b8060a05f930193845e82015260a0519180609f8401106801000000000000000084101615604657608083015191680100000000000000008310156101a157604051936803ffffffffffffffe0603f6801ffffffffffffffe0601f8701160116850190858210156801000000000000000083101660cb57506101d8565b60a091604052848652019282818501111560e557506101f3565b602085825f9383830197885e010152815191680100000000000000008310156101d8575f548060011c60018216151561011c57607f165b906001602083109182181661013257505061021d565b156102cb575b50601f831115610454579190505f915f805267ffffffffffffffe08216928361047257506001927f290decd9548b62a8d60345a988386fc84ba6bc95484008f6362f93160ef3e56391836020926104b8565b6080820151916801000000000000000083106101a7575b50610423565b836803ffffffffffffffe0603f6801ffffffffffffffe0601f870116011601906801000000000000000082106101de575b506101a1565b60a0916040520191808452838184011115604f575b506046565b6001548060011c60018216151561020d57607f165b906001602083109182181661024c575b50505050507f4e487b71000000000000000000000000000000000000000000000000000000005f52602261044c565b1561034d575b50601f8311156104635790505f60015f5267ffffffffffffffe0831691826104e0579190507fb10e2d527612073b26eecdfd717e6a320cf44b4afac2b0732d9fcbe2b7fa0cf691836020925b14156102ac575050506102c0565b60015f0360f88560031b161c199101511690555b60019060011b6103e4565b5f8052601f841115610307577f290decd9548b62a8d60345a988386fc84ba6bc95484008f6362f93160ef3e563601f8181870160051c0161032c565b7f290decd9548b62a8d60345a988386fc84ba6bc95484008f6362f93160ef3e563601f815b920160051c0190610340565b6001905f8155015b8181106103385750610138565b60015f52601f84111561038a577fb10e2d527612073b26eecdfd717e6a320cf44b4afac2b0732d9fcbe2b7fa0cf6601f8181870160051c016103af565b7fb10e2d527612073b26eecdfd717e6a320cf44b4afac2b0732d9fcbe2b7fa0cf6601f815b920160051c01906103c3565b6001905f8155015b8181106103bb5750610252565b50515b60015f038260031b1c19169060011b905b1760015563000015b38063000005445f395ff35b50515b8160011b9160015f039060031b1c19165b175f558151916801000000000000000083106101f8575b5050507f4e487b71000000000000000000000000000000000000000000000000000000005f5260415b60045260245ffd5b50815f906103f85790506103fb565b50815f906103d05790506103d3565b907f290decd9548b62a8d60345a988386fc84ba6bc95484008f6362f93160ef3e56390602080600181945b84860151815501930193019185831061053157929150836001955b14156104c6575050506104d9565b845f0360f88560031b161c199101511690555b811b61040c565b837fb10e2d527612073b26eecdfd717e6a320cf44b4afac2b0732d9fcbe2b7fa0cf693602080600181975b86890151815501960194018181101561052b57939460206001819261050b565b5061029e565b60206001819295949561049d565b600056fe5b60806040525f3414156015576003361161102a575b5f80fd5b5f548060011c600182161515602c57607f165b906001816020841018166066575b50507f4e487b71000000000000000000000000000000000000000000000000000000005f526022610df6565b8160805260a060205f03601f840116019082826040526088575b509050610304565b601f8311610334575b9091506101005f031660a052610304565b6001548060011c60018216151560b657607f165b9060018160208410181615603a578160805260a060205f03601f8401160190828260405215608057601f831115609157505060015f5260a080910190602060017fb10e2d527612073b26eecdfd717e6a320cf44b4afac2b0732d9fcbe2b7fa0cf65b80548452019101808311156102fd57906001602091610118565b638832e6e2811361019757636352211e8114610712576370a082311415601557601f600436031315601557740100000000000000000000000000000000000000006004351015601557600435156112725760036020526004355f5260405f2054610cdf565b638832e6e38114610d72576395d89b411460a2576015565b633fffffff1663081812fb81136101d8576301ffc9a78114610622576306fdde03146019576015565b63081812fc81146106c85763095ea7b31415601557603f60043603131560155774010000000000000000000000000000000000000000600435101560155760026020525f6024355f525f6101000a90811561024c575073ffffffffffffffffffffffffffffffffffffffff8160405f205404165b908073ffffffffffffffffffffffffffffffffffffffff33168381141561027457505061029a565b6005602052835f5260405f206020525f52156113705760ff8160405f2054041615611370575b60046020526024355f5260405f209073ffffffffffffffffffffffffffffffffffffffff600435820291021982541617905560243590600435907f8c5be1e5ebec7d5bd14f71427d1e84f3dd0314c0f7b2291e5b200ac8c7c3b9255b5f5b6080a4005b5050506040515b6020815260406080519182602082015201908060a0835e5f8183015260405191829160205f0390601f0116010390f35b50505f805260a080910190602060017f290decd9548b62a8d60345a988386fc84ba6bc95484008f6362f93160ef3e5635b80548452019101808311156102fd57906001602091610365565b73ffffffffffffffffffffffffffffffffffffffff33166004358114156112d2575b505b60036020526004355f5260405f206001815403905560036020526024355f5260405f206001815401905560026020526044355f5260405f20600460205273ffffffffffffffffffffffffffffffffffffffff8202199160243502828254161790556044355f5260405f209081541690556044356024356004357fddf252ad1be2c89b69c2b068fc378daa952ba7f163c4a11628f55a4df523b3ef6102f6565b5060ff8160405f2054041615611341575b60036020526004355f5260405f206001815403905560036020526024355f5260405f206001815401905560026020526044355f5260405f20600460205273ffffffffffffffffffffffffffffffffffffffff8202199160243502828254161790556044355f5260405f209081541690556044356024356004357fddf252ad1be2c89b69c2b068fc378daa952ba7f163c4a11628f55a4df523b3ef5f6080a46024353b1561061e576020906040519060806064830152604435826044015260043582602401527f150b7a0200000000000000000000000000000000000000000000000000000000825281600401525f816084015260a4604051809203015b815f60245b355af1610ac0573d805f803e5ffd5b5060ff8160405f205404161561139e575b60036020526004355f5260405f206001815403905560036020526024355f5260405f206001815401905560026020526044355f5260405f20600460205273ffffffffffffffffffffffffffffffffffffffff8202199160243502828254161790556044355f5260405f209081541690556044356024356004357fddf252ad1be2c89b69c2b068fc378daa952ba7f163c4a11628f55a4df523b3ef5f6080a46024353b61143b5750505b505b005b50601f6004360313156015577bffffffffffffffffffffffffffffffffffffffffffffffffffffffff600435166015577f80ac58cd00000000000000000000000000000000000000000000000000000000600435147f01ffc9a70000000000000000000000000000000000000000000000000000000060043514177f5b5e139f000000000000000000000000000000000000000000000000000000006004351417610cdf565b50601f60043603131560155760046020525f6004355f525f6101000a806106ef5750610cdf565b73ffffffffffffffffffffffffffffffffffffffff915060405f20540416610cdf565b50601f60043603131560155760026020526004355f525f6101000a80156107595773ffffffffffffffffffffffffffffffffffffffff9060405f205404165f811415610cdf575b50600a60a4527f4e4f545f4d494e544544000000000000000000000000000000000000000000005b60c4527f08c379a000000000000000000000000000000000000000000000000000000000608052602060845260646080fd5b50601f6004360313156015576060518060a052602060805280608060c05e5f8160c0015260c0604051809260205f0390601f0116030190f35b73ffffffffffffffffffffffffffffffffffffffff6024351160155760026020525f6044355f525f6101000a90811561083e575073ffffffffffffffffffffffffffffffffffffffff8160405f205404165b6004351461129d575b50600a60a4527f57524f4e475f46524f4d00000000000000000000000000000000000000000000610781565b600435156112a75760026020526024355f525f6101000a806114b2575b60036020526004355f5260405f206002602052600181540190556024355f5260405f209073ffffffffffffffffffffffffffffffffffffffff60043582029102198254161790556024356004355f7fddf252ad1be2c89b69c2b068fc378daa952ba7f163c4a11628f55a4df523b3ef816102f8565b73ffffffffffffffffffffffffffffffffffffffff6024351160155760026020525f6044355f525f6101000a908115610957575073ffffffffffffffffffffffffffffffffffffffff8160405f205404165b600435141561084757602435156112a55773ffffffffffffffffffffffffffffffffffffffff33169060043582146104535760056020525f6004355f5260405f20602052825f525f8214156104425760046020526044355f52611369565b600435156112a75760026020526024355f525f6101000a80611554575b60036020526004355f5260405f206002602052600181540190556024355f5260405f209073ffffffffffffffffffffffffffffffffffffffff60043582029102198254161790556024356004355f7fddf252ad1be2c89b69c2b068fc378daa952ba7f163c4a11628f55a4df523b3ef816080a46004353b156106205760206040516080606482015260243581604401527f150b7a0200000000000000000000000000000000000000000000000000000000815273ffffffffffffffffffffffffffffffffffffffff331681600401525f81608401525f816024015260a4604051809203015b815f6004610555565b3d604051601f8160205f03848301160192836040521315610be457517bffffffffffffffffffffffffffffffffffffffffffffffffffffffff8116610be4577f150b7a02000000000000000000000000000000000000000000000000000000001461061e577f554e534146455f524543495049454e54000000000000000000000000000000006044820152601060248201527f08c379a0000000000000000000000000000000000000000000000000000000008152602060048261142d565b73ffffffffffffffffffffffffffffffffffffffff602435116015573660236064350112680100000000000000006064351016156015576004606435013567ffffffffffffffff811115610bd257506015565b60246064350190368183011115610bea575b50506015565b60026020525f906044355f525f6101000a918215610c21575073ffffffffffffffffffffffffffffffffffffffff8260405f205404165b60043514610c30575050610847565b602435610c3e5750506112a5565b73ffffffffffffffffffffffffffffffffffffffff33169160043583146105755760056020525f6004355f5260405f20602052835f525f8214156105645760046020526044355f526113c6565b73ffffffffffffffffffffffffffffffffffffffff602435116015575f6004355f52600560205260405f206020526024355f525f6101000a9081610cd0579050610cdf565b5060ff5f916040832054041614155b60805260206080f35b50603f60043603131560155774010000000000000000000000000000000000000000600435106109b5576015565b50605f60043603131560155774010000000000000000000000000000000000000000600435106107ec576015565b50605f6004360313156015577401000000000000000000000000000000000000000060043510610905576015565b50605f6004360313156015577401000000000000000000000000000000000000000060043510156015573660236044350112680100000000000000006044351016156015576004604435013567ffffffffffffffff811115610dfe575b507f4e487b71000000000000000000000000000000000000000000000000000000005f5260415b60045260245ffd5b6801ffffffffffffffe0601f82011667ffffffffffffff40811115610e235750610dcf565b6801ffffffffffffffe0603f608092011601604052806080526024604435013682820111610be457815f9260a09283370152600435156113d35760026020526024355f525f6101000a80611501575b60036020526004355f5260405f206002602052600181540190556024355f5260405f209073ffffffffffffffffffffffffffffffffffffffff60043582029102198254161790556024356004355f7fddf252ad1be2c89b69c2b068fc378daa952ba7f163c4a11628f55a4df523b3ef81604051a46004353b1561062057602060405160243560448201527f150b7a0200000000000000000000000000000000000000000000000000000000815273ffffffffffffffffffffffffffffffffffffffff33168160040152608081606401525f81602401526080519081816084015260a401908060a0835e5f81830152604051918291845f0390601f01160103610ab7565b60026024351015601557600560205273ffffffffffffffffffffffffffffffffffffffff3316805f5260405f206020526004355f525f6101000a5f60243515610fbb5750805b60ff60405f20920219825416179055602435608052600435907f17307eab39ab6107e8899845ad3d59bd9653f200f220920489ca2b5937696c3160206080a3005b50607f6004360313156015577401000000000000000000000000000000000000000060043510610b7f576015565b5f3560e01c7f6352211e000000000000000000000000000000000000000000000000000000005f3510611119577fa1448194000000000000000000000000000000000000000000000000000000005f35106101325763b88d4fdd81136110cc5763a14481948114610ce85763a22cb4651415601557603f6004360313156015577401000000000000000000000000000000000000000060043510610f75576015565b63b88d4fde8114610ffc5763c87b56dd81146107b35763e985e9c51415601557603f6004360313156015577401000000000000000000000000000000000000000060043510610c8b576015565b7f23b872dd000000000000000000000000000000000000000000000000000000005f35106101af57637fffffff166342842e0d8113611194576323b872dd8114610d16576340c10f191415601557603f6004360313156015577401000000000000000000000000000000000000000060043510610873576015565b6342842e0e8114610d44576342966c681415601557601f60043603131560155760026020526004355f525f6101000a80156107595773ffffffffffffffffffffffffffffffffffffffff8160405f2054041690816111f25750610759565b6003602052815f5260405f206001815403905560026020526004355f5273ffffffffffffffffffffffffffffffffffffffff60405f209160046020520219908181541690556004355f5260405f209081541690555f600435917fddf252ad1be2c89b69c2b068fc378daa952ba7f163c4a11628f55a4df523b3ef826102f8565b600c60a4527f5a45524f5f414444524553530000000000000000000000000000000000000000610781565b60243561037f575b505b601160a4527f494e56414c49445f524543495049454e54000000000000000000000000000000610781565b60056020525f6004355f5260405f20602052815f525f8314156112ff579060046020526044355f52611337565b5060ff8260405f205404166103a15760046020526044355f5273ffffffffffffffffffffffffffffffffffffffff8260405f20540416905b146103a357611372565b60046020526044355f5273ffffffffffffffffffffffffffffffffffffffff8160405f205404165b8214610453575b505b50600e60a4527f4e4f545f415554484f52495a4544000000000000000000000000000000000000610781565b60046020526044355f5273ffffffffffffffffffffffffffffffffffffffff8160405f205404165b8314610575575050611370565b6040517f494e56414c49445f524543495049454e54000000000000000000000000000000604482015260115b81602401527f08c379a000000000000000000000000000000000000000000000000000000000815260208160045b015260646040518092030190fd5b6020925f60a0601f948460405160806064820152604435816044015260043581602401527f150b7a020000000000000000000000000000000000000000000000000000000081528181608401528060040192835260a401948537840101526801ffffffffffffffe060405193849301160103610550565b73ffffffffffffffffffffffffffffffffffffffff8160405f2054041615610890575b50600e60a4527f414c52454144595f4d494e544544000000000000000000000000000000000000610781565b73ffffffffffffffffffffffffffffffffffffffff8160405f2054041615610e7257506040517f414c52454144595f4d494e5445440000000000000000000000000000000000006044820152600e6113ff565b73ffffffffffffffffffffffffffffffffffffffff8160405f20540416156109d2576114d5565b600056fea164736f6c637829736f6c783a302e312e302d616c7068612e323b736f6c633a302e382e32393b6c6c766d3a312e302e320031","linkReferences":{}},"methodIdentifiers":{"approve(address,uint256)":"095ea7b3","balanceOf(address)":"70a08231","burn(uint256)":"42966c68","getApproved(uint256)":"081812fc","isApprovedForAll(address,address)":"e985e9c5","mint(address,uint256)":"40c10f19","name()":"06fdde03","ownerOf(uint256)":"6352211e","safeMint(address,uint256)":"a1448194","safeMint(address,uint256,bytes)":"8832e6e3","safeTransferFrom(address,address,uint256)":"42842e0e","safeTransferFrom(address,address,uint256,bytes)":"b88d4fde","setApprovalForAll(address,bool)":"a22cb465","supportsInterface(bytes4)":"01ffc9a7","symbol()":"95d89b41","tokenURI(uint256)":"c87b56dd","transferFrom(address,address,uint256)":"23b872dd"},"id":31}