{"abi":[{"type":"function","name":"targetContracts","inputs":[],"outputs":[{"name":"","type":"address[]","internalType":"address[]"}],"stateMutability":"view"}],"bytecode":{"object":"0x5b60806040525f341415601c5763000002008063000000255f395ff35b5f80fd5b600056fe5b60806040525f341415601457600336116071575b5f80fd5b604051602081526080518181809360200152604001911560675760a060016020805f935b73ffffffffffffffffffffffffffffffffffffffff81511687520194019101928284106101bb575091505b5060405180910390f35b7f3f7286f4000000000000000000000000000000000000000000000000000000007fffffffff000000000000000000000000000000000000000000000000000000005f351614156014575f548015610162578060805260a0809160051b0190816040525f80525f6101000a90811561013e5790602060017f290decd9548b62a8d60345a988386fc84ba6bc95484008f6362f93160ef3e5635b73ffffffffffffffffffffffffffffffffffffffff848254041685520192019081841115610159579091600160209161010a565b5050602060a05b5f8152018082111561015c57602090610145565b50505b50506018565b50601360a4527f4e4f5f5441524745545f434f4e5452414354530000000000000000000000000060c4527f08c379a000000000000000000000000000000000000000000000000000000000608052602060845260646080fd5b602080600192959395603c565b600056fea164736f6c637829736f6c783a302e312e302d616c7068612e323b736f6c633a302e382e32393b6c6c766d3a312e302e320031","linkReferences":{}},"methodIdentifiers":{"targetContracts()":"3f7286f4"},"id":22}