{"abi":[{"type":"constructor","inputs":[{"name":"_owner","type":"address","internalType":"address"},{"name":"_authority","type":"address","internalType":"contract Authority"}],"stateMutability":"nonpayable"},{"type":"function","name":"authority","inputs":[],"outputs":[{"name":"","type":"address","internalType":"contract Authority"}],"stateMutability":"view"},{"type":"function","name":"canCall","inputs":[{"name":"user","type":"address","internalType":"address"},{"name":"target","type":"address","internalType":"address"},{"name":"functionSig","type":"bytes4","internalType":"bytes4"}],"outputs":[{"name":"","type":"bool","internalType":"bool"}],"stateMutability":"view"},{"type":"function","name":"doesRoleHaveCapability","inputs":[{"name":"role","type":"uint8","internalType":"uint8"},{"name":"target","type":"address","internalType":"address"},{"name":"functionSig","type":"bytes4","internalType":"bytes4"}],"outputs":[{"name":"","type":"bool","internalType":"bool"}],"stateMutability":"view"},{"type":"function","name":"doesUserHaveRole","inputs":[{"name":"user","type":"address","internalType":"address"},{"name":"role","type":"uint8","internalType":"uint8"}],"outputs":[{"name":"","type":"bool","internalType":"bool"}],"stateMutability":"view"},{"type":"function","name":"getRolesWithCapability","inputs":[{"name":"","type":"address","internalType":"address"},{"name":"","type":"bytes4","internalType":"bytes4"}],"outputs":[{"name":"","type":"bytes32","internalType":"bytes32"}],"stateMutability":"view"},{"type":"function","name":"getUserRoles","inputs":[{"name":"","type":"address","internalType":"address"}],"outputs":[{"name":"","type":"bytes32","internalType":"bytes32"}],"stateMutability":"view"},{"type":"function","name":"isCapabilityPublic","inputs":[{"name":"","type":"address","internalType":"address"},{"name":"","type":"bytes4","internalType":"bytes4"}],"outputs":[{"name":"","type":"bool","internalType":"bool"}],"stateMutability":"view"},{"type":"function","name":"owner","inputs":[],"outputs":[{"name":"","type":"address","internalType":"address"}],"stateMutability":"view"},{"type":"function","name":"setAuthority","inputs":[{"name":"newAuthority","type":"address","internalType":"contract Authority"}],"outputs":[],"stateMutability":"nonpayable"},{"type":"function","name":"setPublicCapability","inputs":[{"name":"target","type":"address","internalType":"address"},{"name":"functionSig","type":"bytes4","internalType":"bytes4"},{"name":"enabled","type":"bool","internalType":"bool"}],"outputs":[],"stateMutability":"nonpayable"},{"type":"function","name":"setRoleCapability","inputs":[{"name":"role","type":"uint8","internalType":"uint8"},{"name":"target","type":"address","internalType":"address"},{"name":"functionSig","type":"bytes4","internalType":"bytes4"},{"name":"enabled","type":"bool","internalType":"bool"}],"outputs":[],"stateMutability":"nonpayable"},{"type":"function","name":"setUserRole","inputs":[{"name":"user","type":"address","internalType":"address"},{"name":"role","type":"uint8","internalType":"uint8"},{"name":"enabled","type":"bool","internalType":"bool"}],"outputs":[],"stateMutability":"nonpayable"},{"type":"function","name":"transferOwnership","inputs":[{"name":"newOwner","type":"address","internalType":"address"}],"outputs":[],"stateMutability":"nonpayable"},{"type":"event","name":"AuthorityUpdated","inputs":[{"name":"user","type":"address","indexed":true,"internalType":"address"},{"name":"newAuthority","type":"address","indexed":true,"internalType":"contract Authority"}],"anonymous":false},{"type":"event","name":"OwnershipTransferred","inputs":[{"name":"user","type":"address","indexed":true,"internalType":"address"},{"name":"newOwner","type":"address","indexed":true,"internalType":"address"}],"anonymous":false},{"type":"event","name":"PublicCapabilityUpdated","inputs":[{"name":"target","type":"address","indexed":true,"internalType":"address"},{"name":"functionSig","type":"bytes4","indexed":true,"internalType":"bytes4"},{"name":"enabled","type":"bool","indexed":false,"internalType":"bool"}],"anonymous":false},{"type":"event","name":"RoleCapabilityUpdated","inputs":[{"name":"role","type":"uint8","indexed":true,"internalType":"uint8"},{"name":"target","type":"address","indexed":true,"internalType":"address"},{"name":"functionSig","type":"bytes4","indexed":true,"internalType":"bytes4"},{"name":"enabled","type":"bool","indexed":false,"internalType":"bool"}],"anonymous":false},{"type":"event","name":"UserRoleUpdated","inputs":[{"name":"user","type":"address","indexed":true,"internalType":"address"},{"name":"role","type":"uint8","indexed":true,"internalType":"uint8"},{"name":"enabled","type":"bool","indexed":false,"internalType":"bool"}],"anonymous":false}],"bytecode":{"object":"0x5b60806040525f341415602b576300000fab8038038091608039604060808201918282521215602f575b505b5f80fd5b6080519073ffffffffffffffffffffffffffffffffffffffff8211156054575b506029565b60a0519173ffffffffffffffffffffffffffffffffffffffff83111560785750604f565b5f91826101000a8273ffffffffffffffffffffffffffffffffffffffff8202199186810283600154161760015502908454161783557f8be0079c531659141344cd1fd0a4f28419497f9722a3daafe3b4186f6b6457e073ffffffffffffffffffffffffffffffffffffffff3316938492a37fa3396fd7f6e0a21b50e5089d2da70d5ac0a3bbbd1f617a93f134b763899801985f604051a36300000e878063000001245f395ff35b600056fe5b60806040525f34141560155760033611610500575b5f80fd5b637917b79381136095576306a36aee811461028157632f47571f81146102c0576367aff4841415601557605f60043603131560155773ffffffffffffffffffffffffffffffffffffffff600435116015576101006024351015601557600260443510156015575f5f6101000a90816107ce57905060809061080e565b637917b794811461035057637a9e5e4b81146103b657637d40583d1415601557607f60043603131560155761010060043510156015577401000000000000000000000000000000000000000060243510156015577bffffffffffffffffffffffffffffffffffffffffffffffffffffffff60443516601557600260643510156015575f5f6101000a90816109a75790506080906109e7565b638da5cb5b811461076b5763b4bad06a81146104155763b70096131415601557605f60043603131560155773ffffffffffffffffffffffffffffffffffffffff6004351160155773ffffffffffffffffffffffffffffffffffffffff602435116015577bffffffffffffffffffffffffffffffffffffffffffffffffffffffff6044351660155760036020526024355f5260405f206020526044355f525f6101000a8061020657505b60046020526024355f5260405f206020526044355f525f6040812060026020526004358252546040822054610343565b60ff5f9160408320540416146101d6576001610347565b60036020526004355f5260405f206020525f6044351561023a5750805b6024355f5260ff60405f209202198254161790556044358152604051907f950a343f5d10445e82a71036d3f4fb3016180a25805141932543b83e2078a93e6024359261099a565b50601f6004360313156015577401000000000000000000000000000000000000000060043510156015576004355f5260025b60205260405f2054610347565b50603f6004360313156015577401000000000000000000000000000000000000000060043510156015577bffffffffffffffffffffffffffffffffffffffffffffffffffffffff602435166015575f6004355f52600360205260405f206020526024355f525f6101000a9081610337579050610347565b5060ff5f916040832054045b1614155b60805260206080f35b50603f6004360313156015577401000000000000000000000000000000000000000060043510156015577bffffffffffffffffffffffffffffffffffffffffffffffffffffffff602435166015576004355f52600460205260405f206024355f526102b3565b50601f60043603131560155773ffffffffffffffffffffffffffffffffffffffff600435116015575f5f6101000a90816106175773ffffffffffffffffffffffffffffffffffffffff331690811561071457608060648160209361067b565b50605f60043603131560155761010060043510156015577401000000000000000000000000000000000000000060243510156015577bffffffffffffffffffffffffffffffffffffffffffffffffffffffff6044351660155760046020526024355f5260405f206020526044355f52600160405f205460046104f8565b600260443510156015575f5f6101000a9081610b325790608091610c36565b50603f60043603131560155773ffffffffffffffffffffffffffffffffffffffff60043511601557610100602435101560155760026020526004355f52600160405f205460245b351c16610347565b5f3560e01c7f8da5cb5b000000000000000000000000000000000000000000000000000000005f35106019577fbf7e214f000000000000000000000000000000000000000000000000000000005f351061012d5763ea7ca27581136105c55763bf7e214f811461079e5763c6b0263e1415601557605f60043603131560155773ffffffffffffffffffffffffffffffffffffffff600435116015577bffffffffffffffffffffffffffffffffffffffffffffffffffffffff6024351615610492576015565b63ea7ca27681146104b15763f2fde38b1415601557601f6004360313156015577401000000000000000000000000000000000000000060043510156015575f5f6101000a9081610c5957608091610c9d565b5073ffffffffffffffffffffffffffffffffffffffff331673ffffffffffffffffffffffffffffffffffffffff825f5404168114156106585760809161071c565b6020608060648173ffffffffffffffffffffffffffffffffffffffff8660015404165b73ffffffffffffffffffffffffffffffffffffffff301660a4527fb7009613000000000000000000000000000000000000000000000000000000008252856084527fffffffff000000000000000000000000000000000000000000000000000000005f351660c4525afa15610d50573d91604051601f8160205f03868301160194856040521315610d7757600190511461071c57610c05565b50506080905f905b73ffffffffffffffffffffffffffffffffffffffff600435820291021960015416176001557fa3396fd7f6e0a21b50e5089d2da70d5ac0a3bbbd1f617a93f134b763899801985b5f60043593a3005b505f5f6101000a8061077d5750610347565b73ffffffffffffffffffffffffffffffffffffffff91505f5b540416610347565b505f5f6101000a806107b05750610347565b73ffffffffffffffffffffffffffffffffffffffff91506001610796565b5073ffffffffffffffffffffffffffffffffffffffff8160015404168061088e575073ffffffffffffffffffffffffffffffffffffffff6080915b5f5404165b73ffffffffffffffffffffffffffffffffffffffff331614610948575b7f554e415554484f52495a454400000000000000000000000000000000000000006044820152600c60248201527f08c379a00000000000000000000000000000000000000000000000000000000081526020600482015260646040518092030190fd5b60806064816020937fffffffff000000000000000000000000000000000000000000000000000000005f351660c45273ffffffffffffffffffffffffffffffffffffffff301660a4527fb700961300000000000000000000000000000000000000000000000000000000825273ffffffffffffffffffffffffffffffffffffffff33166084525afa15610d52573d90604051601f8160205f03858301160193846040521315610c0557516002811015610c055715610e1357505b60ff60243516906001821b60443515610dd75760026020526004355f5260405f20908154175b905560443581527f4c9bdd0c8e073eb5eda2250b18d8e5121ff27b62064fbeeeed4869bb99bc5bf26040515b60208160043594030190a3005b5073ffffffffffffffffffffffffffffffffffffffff81600154041680610a09575073ffffffffffffffffffffffffffffffffffffffff6080915b5f5404165b73ffffffffffffffffffffffffffffffffffffffff3316141561082b57610ac3565b60806064816020937fffffffff000000000000000000000000000000000000000000000000000000005f351660c45273ffffffffffffffffffffffffffffffffffffffff301660a4527fb700961300000000000000000000000000000000000000000000000000000000825273ffffffffffffffffffffffffffffffffffffffff33166084525afa15610d52573d90604051601f8160205f03858301160193846040521315610c0557516002811015610c055715610e2e57505b60ff60043516906001821b60643515610def5760046020526024355f5260405f206020526044355f5260405f20908154175b90556064358152604051917fa52ea92e6e955aa8ac66420b86350f7139959adfcc7e6a14eee1bd116d09860e6044359360208160243595030190a4005b5073ffffffffffffffffffffffffffffffffffffffff81600154041680610b5c5750608090610c1b565b60806064816020937fffffffff000000000000000000000000000000000000000000000000000000005f351660c45273ffffffffffffffffffffffffffffffffffffffff301660a4527fb700961300000000000000000000000000000000000000000000000000000000825273ffffffffffffffffffffffffffffffffffffffff33166084525afa15610d52573d90604051601f8160205f038583011601938460405213610c0c575b5050506015565b516002811015610c055761021d575b73ffffffffffffffffffffffffffffffffffffffff815f5404165b73ffffffffffffffffffffffffffffffffffffffff33161461021d575b5061082b565b5073ffffffffffffffffffffffffffffffffffffffff8160015404169081610cc15790506080905b73ffffffffffffffffffffffffffffffffffffffff815f540416905b73ffffffffffffffffffffffffffffffffffffffff3316918214610d8e5750610c53565b7fffffffff000000000000000000000000000000000000000000000000000000005f351660c45273ffffffffffffffffffffffffffffffffffffffff301660a4527fb7009613000000000000000000000000000000000000000000000000000000006080526020608060648173ffffffffffffffffffffffffffffffffffffffff331695866084525afa610d5b575b505b503d805f803e5ffd5b3d91604051601f8160205f038683011601948560405213610d7d575b50610c05565b516002811015610d775715610e4957905b73ffffffffffffffffffffffffffffffffffffffff60043582029102195f5416175f557f8be0079c531659141344cd1fd0a4f28419497f9722a3daafe3b4186f6b6457e0610763565b60026020526004355f5260405f20901981541661096e565b60046020526024355f5260405f206020526044355f5260405f209019815416610af5565b73ffffffffffffffffffffffffffffffffffffffff90610809565b73ffffffffffffffffffffffffffffffffffffffff906109e2565b50610c81565b600056fea164736f6c637829736f6c783a302e312e302d616c7068612e323b736f6c633a302e382e32393b6c6c766d3a312e302e320031","linkReferences":{}},"methodIdentifiers":{"authority()":"bf7e214f","canCall(address,address,bytes4)":"b7009613","doesRoleHaveCapability(uint8,address,bytes4)":"b4bad06a","doesUserHaveRole(address,uint8)":"ea7ca276","getRolesWithCapability(address,bytes4)":"7917b794","getUserRoles(address)":"06a36aee","isCapabilityPublic(address,bytes4)":"2f47571f","owner()":"8da5cb5b","setAuthority(address)":"7a9e5e4b","setPublicCapability(address,bytes4,bool)":"c6b0263e","setRoleCapability(uint8,address,bytes4,bool)":"7d40583d","setUserRole(address,uint8,bool)":"67aff484","transferOwnership(address)":"f2fde38b"},"id":4}