{"abi":[{"type":"receive","stateMutability":"payable"},{"type":"function","name":"DOMAIN_SEPARATOR","inputs":[],"outputs":[{"name":"","type":"bytes32","internalType":"bytes32"}],"stateMutability":"view"},{"type":"function","name":"allowance","inputs":[{"name":"","type":"address","internalType":"address"},{"name":"","type":"address","internalType":"address"}],"outputs":[{"name":"","type":"uint256","internalType":"uint256"}],"stateMutability":"view"},{"type":"function","name":"approve","inputs":[{"name":"spender","type":"address","internalType":"address"},{"name":"amount","type":"uint256","internalType":"uint256"}],"outputs":[{"name":"","type":"bool","internalType":"bool"}],"stateMutability":"nonpayable"},{"type":"function","name":"balanceOf","inputs":[{"name":"","type":"address","internalType":"address"}],"outputs":[{"name":"","type":"uint256","internalType":"uint256"}],"stateMutability":"view"},{"type":"function","name":"decimals","inputs":[],"outputs":[{"name":"","type":"uint8","internalType":"uint8"}],"stateMutability":"view"},{"type":"function","name":"deposit","inputs":[],"outputs":[],"stateMutability":"payable"},{"type":"function","name":"name","inputs":[],"outputs":[{"name":"","type":"string","internalType":"string"}],"stateMutability":"view"},{"type":"function","name":"nonces","inputs":[{"name":"","type":"address","internalType":"address"}],"outputs":[{"name":"","type":"uint256","internalType":"uint256"}],"stateMutability":"view"},{"type":"function","name":"permit","inputs":[{"name":"owner","type":"address","internalType":"address"},{"name":"spender","type":"address","internalType":"address"},{"name":"value","type":"uint256","internalType":"uint256"},{"name":"deadline","type":"uint256","internalType":"uint256"},{"name":"v","type":"uint8","internalType":"uint8"},{"name":"r","type":"bytes32","internalType":"bytes32"},{"name":"s","type":"bytes32","internalType":"bytes32"}],"outputs":[],"stateMutability":"nonpayable"},{"type":"function","name":"symbol","inputs":[],"outputs":[{"name":"","type":"string","internalType":"string"}],"stateMutability":"view"},{"type":"function","name":"totalSupply","inputs":[],"outputs":[{"name":"","type":"uint256","internalType":"uint256"}],"stateMutability":"view"},{"type":"function","name":"transfer","inputs":[{"name":"to","type":"address","internalType":"address"},{"name":"amount","type":"uint256","internalType":"uint256"}],"outputs":[{"name":"","type":"bool","internalType":"bool"}],"stateMutability":"nonpayable"},{"type":"function","name":"transferFrom","inputs":[{"name":"from","type":"address","internalType":"address"},{"name":"to","type":"address","internalType":"address"},{"name":"amount","type":"uint256","internalType":"uint256"}],"outputs":[{"name":"","type":"bool","internalType":"bool"}],"stateMutability":"nonpayable"},{"type":"function","name":"withdraw","inputs":[{"name":"amount","type":"uint256","internalType":"uint256"}],"outputs":[],"stateMutability":"nonpayable"},{"type":"event","name":"Approval","inputs":[{"name":"owner","type":"address","indexed":true,"internalType":"address"},{"name":"spender","type":"address","indexed":true,"internalType":"address"},{"name":"amount","type":"uint256","indexed":false,"internalType":"uint256"}],"anonymous":false},{"type":"event","name":"Deposit","inputs":[{"name":"from","type":"address","indexed":true,"internalType":"address"},{"name":"amount","type":"uint256","indexed":false,"internalType":"uint256"}],"anonymous":false},{"type":"event","name":"Transfer","inputs":[{"name":"from","type":"address","indexed":true,"internalType":"address"},{"name":"to","type":"address","indexed":true,"internalType":"address"},{"name":"amount","type":"uint256","indexed":false,"internalType":"uint256"}],"anonymous":false},{"type":"event","name":"Withdrawal","inputs":[{"name":"to","type":"address","indexed":true,"internalType":"address"},{"name":"amount","type":"uint256","indexed":false,"internalType":"uint256"}],"anonymous":false}],"bytecode":{"object":"0x5b60e06040525f34141561026f577f577261707065642045746865720000000000000000000000000000000000000061010052600d60e0526101606040526004610120527f5745544800000000000000000000000000000000000000000000000000000000610140525f54600181169060011c811515607c57607f165b906020821090811461015857156102b9575b507f577261707065642045746865720000000000000000000000000000000000001a5f556001548060011c60018216151560c657607f165b906001602083109182181615610158571561027357507f577261707065642045746865720000000000000000000000000000000000001a610107565b50505f545b60126080528060011c600182169081151561012057607f165b917f57455448000000000000000000000000000000000000000000000000000000086001554660a05260018160208510181661018757505b50507f4e487b71000000000000000000000000000000000000000000000000000000005f52602260045260245ffd5b8291610303576101608092509283916101005f031683526101b0565b5050506101606040515b80925b030181204660808301527fc89efdaa54c0f20c7adf612882df0950f5a951637e0307cdcb4c672f298b8bc6606083015260408201527f8b73c3c69bb8fe3d512ecc4cf759cc79239f7b179b0ffacaa9a75d522b39400f602082015260c060a082019173ffffffffffffffffffffffffffffffffffffffff30168352604051809303835201604052805190602001208060c05260805160a0516300000e5c928363000003645f3980610bc85261026f528061024352610b9e5261019a525ff35b5f80fd5b60015f5260017fb10e2d527612073b26eecdfd717e6a320cf44b4afac2b0732d9fcbe2b7fa0cf6601f81930160051c01915b5f81550181811015610102576001906102a5565b5f805260017f290decd9548b62a8d60345a988386fc84ba6bc95484008f6362f93160ef3e563601f81930160051c01915b5f815501818110156102fe576001906102ea565b50608e565b60025f915f8052101561031b575050610160806101ad565b602060017f290decd9548b62a8d60345a988386fc84ba6bc95484008f6362f93160ef3e5635b8054610160850152019101828110156101a357906001602091610341565b600056fe5b6080604052600336116108ea57361561095f575b5f80fd5b6370a08231811461056f57637ecebe0081146105af576395d89b411415601457346014576001548060011c600182161515605057607f165b906001816020841018161560f8578160805260a060205f03601f840116019082826040526080575b5090506101c5565b601f83116101f5575b9091506101005f031660a0526101c5565b633fffffff166306fdde03811460d15763095ea7b381146103f2576318160ddd14156014573460145760025b545b60805260206080f35b50346014575f548060011c60018216151560e957607f165b90600181602084101816610124575b50507f4e487b71000000000000000000000000000000000000000000000000000000005f526022610995565b8160805260a060205f03601f8401160190828260405215607857601f83111560895750505f805260a080910190602060017f290decd9548b62a8d60345a988386fc84ba6bc95484008f6362f93160ef3e5635b80548452019101808311156101be57906001602091610177565b503460145760ff7f00000000000000000000000000000000000000000000000000000000000000001660c8565b5050506040515b6020815260406080519182602082015201908060a0835e5f8183015260405191829160205f0390601f0116010390f35b505060015f5260a080910190602060017fb10e2d527612073b26eecdfd717e6a320cf44b4afac2b0732d9fcbe2b7fa0cf65b80548452019101808311156101be57906001602091610227565b7f0000000000000000000000000000000000000000000000000000000000000000461415610c6457602060807f0000000000000000000000000000000000000000000000000000000000000000610761565b73ffffffffffffffffffffffffffffffffffffffff602435116014576004355f52600460205260405f2060205273ffffffffffffffffffffffffffffffffffffffff3316805f5260405f20549060015f03821415610bec5750505b60036020526004355f5260405f2080546044358110610bf7576044359003905560036020526024355f5260405f20604435815401905560443560805260243560043561050d565b73ffffffffffffffffffffffffffffffffffffffff60243511601457610100608435101560145742606435101561024157601760a4527f5045524d49545f444541444c494e455f4558504952454400000000000000000060c4527f08c379a000000000000000000000000000000000000000000000000000000000608052602060845260646080fd5b73ffffffffffffffffffffffffffffffffffffffff602435116014576004355f52600460205260405f206024355f526105a4565b50603f600436031334151615601457740100000000000000000000000000000000000000006004351015601457600460205273ffffffffffffffffffffffffffffffffffffffff3316805f5260405f206020526004355f5260243560405f2055602435608052600435907f8c5be1e5ebec7d5bd14f71427d1e84f3dd0314c0f7b2291e5b200ac8c7c3b92561052f565b50603f600436031334151615601457740100000000000000000000000000000000000000006004351015601457600360205273ffffffffffffffffffffffffffffffffffffffff3316805f5260405f2080546024358110156104e5575b50610bf7565b6024359003905560036020526004355f5260405f206024358154019055602435608052600435905b7fddf252ad1be2c89b69c2b068fc378daa952ba7f163c4a11628f55a4df523b3ef5b60206080a360405160016106b6565b50605f6004360313341516156014577401000000000000000000000000000000000000000060043510610293576014565b50601f6004360313341516156014577401000000000000000000000000000000000000000060043510156014576004355f5260035b60205260405f2060c6565b50601f6004360313341516156014577401000000000000000000000000000000000000000060043510156014576004355f5260056105a4565b5060df6004360313341516156014577401000000000000000000000000000000000000000060043510610335576014565b50505060806040515b80925b030181204660808301527fc89efdaa54c0f20c7adf612882df0950f5a951637e0307cdcb4c672f298b8bc6606083015260408201527f8b73c3c69bb8fe3d512ecc4cf759cc79239f7b179b0ffacaa9a75d522b39400f602082015260c060a082019173ffffffffffffffffffffffffffffffffffffffff301683526040518093038352019081604052805190602001205b815260206040518092030190f35b505060209060806040515b80925b030181204660808301527fc89efdaa54c0f20c7adf612882df0950f5a951637e0307cdcb4c672f298b8bc6606083015260408201527f8b73c3c69bb8fe3d512ecc4cf759cc79239f7b179b0ffacaa9a75d522b39400f8282015260c060a082019173ffffffffffffffffffffffffffffffffffffffff3016835260405180930383520190816040528051908301205b600583526004355f5260405f206044356080840152602435606084015260043560408401527f6e71edae12b1b97f4d1f60370fef10105fa2faae0126114a169c64845d6126c98484015280548060a0850152600101905560c082016064358152604051809103815260e08301604052805190840120907f1901000000000000000000000000000000000000000000000000000000000000610100840152610102830152610122820190815260405180910381525f61014283019182604052805190850120915261016282018060405260c4356101c284015260a4356101a284015260ff60843516610182840152526040516101e2818481039303019060015afa15610d025760405173ffffffffffffffffffffffffffffffffffffffff602082035116600435811415901517610d0a5760046020526004355f5260405f206020526024355f5260443560405f20556044358152604051907f8c5be1e5ebec7d5bd14f71427d1e84f3dd0314c0f7b2291e5b200ac8c7c3b9256024359260208160043594030190a3005b5f3560e01c7f70a08231000000000000000000000000000000000000000000000000000000005f3510610a6e577fa9059cbb000000000000000000000000000000000000000000000000000000005f351060185763d505acce811361099d5763a9059cbb81146104825763d0e30db014156014575b600254348101908110156109e2575b507f4e487b71000000000000000000000000000000000000000000000000000000005f5260115b60045260245ffd5b63d505accf81146105e85763dd62ed3e1415601457603f60043603133415161560145774010000000000000000000000000000000000000000600435106103be576014565b600255600360205273ffffffffffffffffffffffffffffffffffffffff3316805f5260405f2034815401905534608052805f7fddf252ad1be2c89b69c2b068fc378daa952ba7f163c4a11628f55a4df523b3ef60206080a37fe1fffcc4923d04b559f4d29a8bfc6cda04eb5b0d3c460751c2402c5c5cc9109c60405134815260206040518092030190a2005b7f23b872dd000000000000000000000000000000000000000000000000000000005f3510609a57637fffffff1663313ce5668113610b83576323b872dd811461053e57632e1a7d4d1415601457601f600436031334151615601457600360205273ffffffffffffffffffffffffffffffffffffffff3316805f5260405f209081549160043583106104df575f8093928193928293600435900390556004356002540360025560043560805281817fddf252ad1be2c89b69c2b068fc378daa952ba7f163c4a11628f55a4df523b3ef60206080a3807f7fcf532c15f0a6db0bd6d0e038bea71d30d808c7d98cb3bf7268a95bf5081b65604051600435815260206040518092030190a2600435905af115610ca557005b63313ce567811461019157633644e5151415601457346014577f0000000000000000000000000000000000000000000000000000000000000000461415610c1f5760807f00000000000000000000000000000000000000000000000000000000000000006106b6565b604435821015610bfd575b5061096e565b60046020526004355f5260405f206020525f52604435900360405f20556102ee565b5f548060011c6001821690811515610c3557607f165b91600181602085101816610c49575b5060f8565b8291610d6e5760808092509283916101005f03168352610625565b5f548060011c906001811691821515610c7b57607f165b9160018260208510181615610c4457610d8557906080602092819283916101005f031683526106d2565b6040517f4554485f5452414e534645525f4641494c4544000000000000000000000000006044820152601381602401527f08c379a00000000000000000000000000000000000000000000000000000000081526020816004610d60565b3d805f803e5ffd5b7f494e56414c49445f5349474e45520000000000000000000000000000000000006044820152600e60248201527f08c379a000000000000000000000000000000000000000000000000000000000815260206004825b015260646040518092030190fd5b60025f915f80521015610d9e575050608080610622565b60025f915f80521015610de157506020906080806106cf565b602060017f290decd9548b62a8d60345a988386fc84ba6bc95484008f6362f93160ef3e5635b805460808501520191018281101561061957906001602091610dc4565b602060017f290decd9548b62a8d60345a988386fc84ba6bc95484008f6362f93160ef3e5635b8054608085015201910190828210156106c4576001602091610e07565b600056fea164736f6c637829736f6c783a302e312e302d616c7068612e323b736f6c633a302e382e32393b6c6c766d3a312e302e320031","linkReferences":{}},"methodIdentifiers":{"DOMAIN_SEPARATOR()":"3644e515","allowance(address,address)":"dd62ed3e","approve(address,uint256)":"095ea7b3","balanceOf(address)":"70a08231","decimals()":"313ce567","deposit()":"d0e30db0","name()":"06fdde03","nonces(address)":"7ecebe00","permit(address,address,uint256,uint256,uint8,bytes32,bytes32)":"d505accf","symbol()":"95d89b41","totalSupply()":"18160ddd","transfer(address,uint256)":"a9059cbb","transferFrom(address,address,uint256)":"23b872dd","withdraw(uint256)":"2e1a7d4d"},"id":45}