{"abi":[{"type":"constructor","inputs":[{"name":"_underlying","type":"address","internalType":"contract ERC20"},{"name":"_name","type":"string","internalType":"string"},{"name":"_symbol","type":"string","internalType":"string"}],"stateMutability":"nonpayable"},{"type":"function","name":"DOMAIN_SEPARATOR","inputs":[],"outputs":[{"name":"","type":"bytes32","internalType":"bytes32"}],"stateMutability":"view"},{"type":"function","name":"afterDepositHookCalledCounter","inputs":[],"outputs":[{"name":"","type":"uint256","internalType":"uint256"}],"stateMutability":"view"},{"type":"function","name":"allowance","inputs":[{"name":"","type":"address","internalType":"address"},{"name":"","type":"address","internalType":"address"}],"outputs":[{"name":"","type":"uint256","internalType":"uint256"}],"stateMutability":"view"},{"type":"function","name":"approve","inputs":[{"name":"spender","type":"address","internalType":"address"},{"name":"amount","type":"uint256","internalType":"uint256"}],"outputs":[{"name":"","type":"bool","internalType":"bool"}],"stateMutability":"nonpayable"},{"type":"function","name":"asset","inputs":[],"outputs":[{"name":"","type":"address","internalType":"contract ERC20"}],"stateMutability":"view"},{"type":"function","name":"balanceOf","inputs":[{"name":"","type":"address","internalType":"address"}],"outputs":[{"name":"","type":"uint256","internalType":"uint256"}],"stateMutability":"view"},{"type":"function","name":"beforeWithdrawHookCalledCounter","inputs":[],"outputs":[{"name":"","type":"uint256","internalType":"uint256"}],"stateMutability":"view"},{"type":"function","name":"convertToAssets","inputs":[{"name":"shares","type":"uint256","internalType":"uint256"}],"outputs":[{"name":"","type":"uint256","internalType":"uint256"}],"stateMutability":"view"},{"type":"function","name":"convertToShares","inputs":[{"name":"assets","type":"uint256","internalType":"uint256"}],"outputs":[{"name":"","type":"uint256","internalType":"uint256"}],"stateMutability":"view"},{"type":"function","name":"decimals","inputs":[],"outputs":[{"name":"","type":"uint8","internalType":"uint8"}],"stateMutability":"view"},{"type":"function","name":"deposit","inputs":[{"name":"assets","type":"uint256","internalType":"uint256"},{"name":"receiver","type":"address","internalType":"address"}],"outputs":[{"name":"shares","type":"uint256","internalType":"uint256"}],"stateMutability":"nonpayable"},{"type":"function","name":"maxDeposit","inputs":[{"name":"","type":"address","internalType":"address"}],"outputs":[{"name":"","type":"uint256","internalType":"uint256"}],"stateMutability":"view"},{"type":"function","name":"maxMint","inputs":[{"name":"","type":"address","internalType":"address"}],"outputs":[{"name":"","type":"uint256","internalType":"uint256"}],"stateMutability":"view"},{"type":"function","name":"maxRedeem","inputs":[{"name":"owner","type":"address","internalType":"address"}],"outputs":[{"name":"","type":"uint256","internalType":"uint256"}],"stateMutability":"view"},{"type":"function","name":"maxWithdraw","inputs":[{"name":"owner","type":"address","internalType":"address"}],"outputs":[{"name":"","type":"uint256","internalType":"uint256"}],"stateMutability":"view"},{"type":"function","name":"mint","inputs":[{"name":"shares","type":"uint256","internalType":"uint256"},{"name":"receiver","type":"address","internalType":"address"}],"outputs":[{"name":"assets","type":"uint256","internalType":"uint256"}],"stateMutability":"nonpayable"},{"type":"function","name":"name","inputs":[],"outputs":[{"name":"","type":"string","internalType":"string"}],"stateMutability":"view"},{"type":"function","name":"nonces","inputs":[{"name":"","type":"address","internalType":"address"}],"outputs":[{"name":"","type":"uint256","internalType":"uint256"}],"stateMutability":"view"},{"type":"function","name":"permit","inputs":[{"name":"owner","type":"address","internalType":"address"},{"name":"spender","type":"address","internalType":"address"},{"name":"value","type":"uint256","internalType":"uint256"},{"name":"deadline","type":"uint256","internalType":"uint256"},{"name":"v","type":"uint8","internalType":"uint8"},{"name":"r","type":"bytes32","internalType":"bytes32"},{"name":"s","type":"bytes32","internalType":"bytes32"}],"outputs":[],"stateMutability":"nonpayable"},{"type":"function","name":"previewDeposit","inputs":[{"name":"assets","type":"uint256","internalType":"uint256"}],"outputs":[{"name":"","type":"uint256","internalType":"uint256"}],"stateMutability":"view"},{"type":"function","name":"previewMint","inputs":[{"name":"shares","type":"uint256","internalType":"uint256"}],"outputs":[{"name":"","type":"uint256","internalType":"uint256"}],"stateMutability":"view"},{"type":"function","name":"previewRedeem","inputs":[{"name":"shares","type":"uint256","internalType":"uint256"}],"outputs":[{"name":"","type":"uint256","internalType":"uint256"}],"stateMutability":"view"},{"type":"function","name":"previewWithdraw","inputs":[{"name":"assets","type":"uint256","internalType":"uint256"}],"outputs":[{"name":"","type":"uint256","internalType":"uint256"}],"stateMutability":"view"},{"type":"function","name":"redeem","inputs":[{"name":"shares","type":"uint256","internalType":"uint256"},{"name":"receiver","type":"address","internalType":"address"},{"name":"owner","type":"address","internalType":"address"}],"outputs":[{"name":"assets","type":"uint256","internalType":"uint256"}],"stateMutability":"nonpayable"},{"type":"function","name":"symbol","inputs":[],"outputs":[{"name":"","type":"string","internalType":"string"}],"stateMutability":"view"},{"type":"function","name":"totalAssets","inputs":[],"outputs":[{"name":"","type":"uint256","internalType":"uint256"}],"stateMutability":"view"},{"type":"function","name":"totalSupply","inputs":[],"outputs":[{"name":"","type":"uint256","internalType":"uint256"}],"stateMutability":"view"},{"type":"function","name":"transfer","inputs":[{"name":"to","type":"address","internalType":"address"},{"name":"amount","type":"uint256","internalType":"uint256"}],"outputs":[{"name":"","type":"bool","internalType":"bool"}],"stateMutability":"nonpayable"},{"type":"function","name":"transferFrom","inputs":[{"name":"from","type":"address","internalType":"address"},{"name":"to","type":"address","internalType":"address"},{"name":"amount","type":"uint256","internalType":"uint256"}],"outputs":[{"name":"","type":"bool","internalType":"bool"}],"stateMutability":"nonpayable"},{"type":"function","name":"withdraw","inputs":[{"name":"assets","type":"uint256","internalType":"uint256"},{"name":"receiver","type":"address","internalType":"address"},{"name":"owner","type":"address","internalType":"address"}],"outputs":[{"name":"shares","type":"uint256","internalType":"uint256"}],"stateMutability":"nonpayable"},{"type":"event","name":"Approval","inputs":[{"name":"owner","type":"address","indexed":true,"internalType":"address"},{"name":"spender","type":"address","indexed":true,"internalType":"address"},{"name":"amount","type":"uint256","indexed":false,"internalType":"uint256"}],"anonymous":false},{"type":"event","name":"Deposit","inputs":[{"name":"caller","type":"address","indexed":true,"internalType":"address"},{"name":"owner","type":"address","indexed":true,"internalType":"address"},{"name":"assets","type":"uint256","indexed":false,"internalType":"uint256"},{"name":"shares","type":"uint256","indexed":false,"internalType":"uint256"}],"anonymous":false},{"type":"event","name":"Transfer","inputs":[{"name":"from","type":"address","indexed":true,"internalType":"address"},{"name":"to","type":"address","indexed":true,"internalType":"address"},{"name":"amount","type":"uint256","indexed":false,"internalType":"uint256"}],"anonymous":false},{"type":"event","name":"Withdraw","inputs":[{"name":"caller","type":"address","indexed":true,"internalType":"address"},{"name":"receiver","type":"address","indexed":true,"internalType":"address"},{"name":"owner","type":"address","indexed":true,"internalType":"address"},{"name":"assets","type":"uint256","indexed":false,"internalType":"uint256"},{"name":"shares","type":"uint256","indexed":false,"internalType":"uint256"}],"anonymous":false}],"bytecode":{"object":"0x5b6101006040525f6006555f6007555f341415607857630000288f803803809161010039610100810180604052605f821315607557610100519173ffffffffffffffffffffffffffffffffffffffff831160735761012051908261011f83011268010000000000000000831016610227575b505b505b50505b5f80fd5b806101205f930193845e820152610140518261011f8201106801000000000000000082101615607157610100810151680100000000000000008110156105e257604051916803ffffffffffffffe0603f6801ffffffffffffffe0601f8501160116830190838210156801000000000000000083101660fb575b506105e0565b610120916040528284520190848183011115610118575b50610286565b602083825f9383830195865e01015260206040517f313ce56700000000000000000000000000000000000000000000000000000000815260046040518092030181885afa156104a3573d93604051601f8160205f038883011601968760405213610183575b50610112565b519360ff851161017d578151916801000000000000000083106101a5575060f5565b5f548060011c6001821615156101b957607f165b90600160208310918218166101cf5750506102b0565b156104b0575b50601f831115610615579190505f915f805267ffffffffffffffe08216928361064e57506001927f290decd9548b62a8d60345a988386fc84ba6bc95484008f6362f93160ef3e5639183602092610694565b61010082015191680100000000000000008310156105e257836803ffffffffffffffe0603f6801ffffffffffffffe0601f87011601160190680100000000000000008210156105e057610120916040520191808452838184011115607c575b506071565b6001548060011c6001821615156102a057607f165b90600160208310918218166102b8575b505050610344565b15610532575b50601f82111561062457505f9060015f5267ffffffffffffffe0811691826106bc575060ff926001927fb10e2d527612073b26eecdfd717e6a320cf44b4afac2b0732d9fcbe2b7fa0cf69183602092610703565b16905f548060011c91600182169283151561032b57607f165b936080526001554660a052600181602085101816610373575b50505050507f4e487b71000000000000000000000000000000000000000000000000000000005f52602261060d565b829161072e5790506101005f031682525b604051918291010381204682608001527fc89efdaa54c0f20c7adf612882df0950f5a951637e0307cdcb4c672f298b8bc6826060015281604001527f8b73c3c69bb8fe3d512ecc4cf759cc79239f7b179b0ffacaa9a75d522b39400f816020015273ffffffffffffffffffffffffffffffffffffffff30168160a00152604051908160a0820103825260c001604052805190602001208160e0528060c0526080519060a0519063000020e4938463000007ab5f39806104d2528060f3528061060152806107715280610a265280610af25280610b945280610c3652806110ef5280611789528061188c52806119b75280611ab55280611c275280611d1b5280611e4b52611f0d52806103ce526108ab528061087f526103a45260b0525ff35b50505050503d805f803e5ffd5b5f8052601f8411156104ec577f290decd9548b62a8d60345a988386fc84ba6bc95484008f6362f93160ef3e563601f8181870160051c01610511565b7f290decd9548b62a8d60345a988386fc84ba6bc95484008f6362f93160ef3e563601f815b920160051c0190610525565b6001905f8155015b81811061051d57506101d5565b60015f52601f83111561056f577fb10e2d527612073b26eecdfd717e6a320cf44b4afac2b0732d9fcbe2b7fa0cf6601f8181860160051c01610594565b7fb10e2d527612073b26eecdfd717e6a320cf44b4afac2b0732d9fcbe2b7fa0cf6601f815b920160051c01906105a8565b6001905f8155015b8181106105a057506102be565b50515b8160011b9160015f039060031b1c19165b175f5581519068010000000000000000821061028b575b505b50505050507f4e487b71000000000000000000000000000000000000000000000000000000005f5260415b60045260245ffd5b50815f906105b55790506105b8565b60ff9250815f90610636579050610639565b50515b8160011b9160015f039060031b1c1916610727565b907f290decd9548b62a8d60345a988386fc84ba6bc95484008f6362f93160ef3e56390602080600181945b84860151815501930193019185831061078a57929150836001955b14156106a2575050506106b5565b845f0360f88560031b161c199101511690555b811b6105c9565b7fb10e2d527612073b26eecdfd717e6a320cf44b4afac2b0732d9fcbe2b7fa0cf6602080600181935b8885015181550192019201908482106107985791905060ff94836001955b141561071157505050610724565b845f0360f88560031b161c199101511690555b811b5b1791610312565b60025f915f80521015610743575b5050610384565b602060017f290decd9548b62a8d60345a988386fc84ba6bc95484008f6362f93160ef3e5635b80548785015201910182811061077f575061073c565b906001602091610769565b602060018192959495610679565b6020600181929493946106e5565b600056fe5b60806040525f34141560155760033611611467575b5f80fd5b505f548060011c600182161515602d57607f165b906001816020841018166067575b50507f4e487b71000000000000000000000000000000000000000000000000000000005f526022611953565b8160805260a060205f03601f840116019082826040526089575b509050610505565b601f8311610535575b9091506101005f031660a052610505565b506002611549565b5060ff7f00000000000000000000000000000000000000000000000000000000000000005b165b60805260206080f35b5073ffffffffffffffffffffffffffffffffffffffff7f000000000000000000000000000000000000000000000000000000000000000060d0565b506001548060011c60018216151561012c57607f165b9060018160208410181615603b578160805260a060205f03601f8401160190828260405215608157601f831115609257505060015f5260a080910190602060017fb10e2d527612073b26eecdfd717e6a320cf44b4afac2b0732d9fcbe2b7fa0cf65b80548452019101808311156104fe5790600160209161018e565b63ce96cb7681136101e65763c63d75b68114610f275763c6e6f5921415601557601f6004360313156015576004356002549081611dee575b90610e1e565b63ce96cb778114610f2d5763d505accf141560155760df60043603131560155774010000000000000000000000000000000000000000600435101560155773ffffffffffffffffffffffffffffffffffffffff60243511601557610100608435101560155742606435101561087d57601760a4527f5045524d49545f444541444c494e455f4558504952454400000000000000000060c4527f08c379a000000000000000000000000000000000000000000000000000000000608052602060845260646080fd5b6394bf804d8114610f93576395d89b4181146101165763a9059cbb1415601557603f600436031315601557740100000000000000000000000000000000000000006004351015601557600360205273ffffffffffffffffffffffffffffffffffffffff3316805f5260405f2080546024358110611929576024359003905560036020526004355f5260405f206024358154019055602435608052600435905b7fddf252ad1be2c89b69c2b068fc378daa952ba7f163c4a11628f55a4df523b3ef5b60206080a360405160016108e1565b637fffffff166338d52e0e81136103f25763313ce567811460ab57633644e51514156015577f0000000000000000000000000000000000000000000000000000000000000000461415611b435760807f00000000000000000000000000000000000000000000000000000000000000006108e1565b6338d52e0f811460db5763402d267d14156015575b601f60043603131560155774010000000000000000000000000000000000000000600435101560155760015f0360d2565b630fffffff166301e1d1148114611eb0576306fdde0381146019576307a2d13a1415601557601f6004360313156015576004356002549081156101e057507f70a082310000000000000000000000000000000000000000000000000000000060805273ffffffffffffffffffffffffffffffffffffffff30166084526020608060248173ffffffffffffffffffffffffffffffffffffffff7f0000000000000000000000000000000000000000000000000000000000000000165afa6117f65750611f34565b5050506040515b6020815260406080519182602082015201908060a0835e5f8183015260405191829160205f0390601f0116010390f35b50505f805260a080910190602060017f290decd9548b62a8d60345a988386fc84ba6bc95484008f6362f93160ef3e5635b80548452019101808311156104fe57906001602091610566565b600435604482015273ffffffffffffffffffffffffffffffffffffffff301660248201527f23b872dd00000000000000000000000000000000000000000000000000000000815273ffffffffffffffffffffffffffffffffffffffff33169081600482015260205f606473ffffffffffffffffffffffffffffffffffffffff7f0000000000000000000000000000000000000000000000000000000000000000169382855af1905f51913d92816001161590600114601f85111617156106485791505061064e565b503b1517155b156107c3576002548281019081106119295760025560036020526024355f5260405f208281540190556040518281525f7fddf252ad1be2c89b69c2b068fc378daa952ba7f163c4a11628f55a4df523b3ef60405160208160243595030190a3604051908260208301526004355b82527fdcbc1c05240f31ff3ad067ef1ee35ce4997762752e3a095284754544f4c709d760405160408160243595030190a360075460015f03811461192b576001016007555b604051906108e1565b82604483015260248201527f23b872dd00000000000000000000000000000000000000000000000000000000815273ffffffffffffffffffffffffffffffffffffffff33169081600482015260205f606473ffffffffffffffffffffffffffffffffffffffff7f0000000000000000000000000000000000000000000000000000000000000000169382855af1905f51913d92816001161590600114601f85111617156107b8579150506107be565b503b1517155b6107f5575b50506040517f5452414e534645525f46524f4d5f4641494c45440000000000000000000000006044820152601461116e565b60025460043581019081106119295760025560036020526024355f5260405f20600435815401905560405160043581525f7fddf252ad1be2c89b69c2b068fc378daa952ba7f163c4a11628f55a4df523b3ef60405160208160243595030190a3604051906004356020830152826106bb565b60025490816118305790506080906004356118eb565b7f0000000000000000000000000000000000000000000000000000000000000000461415611b8857602060807f00000000000000000000000000000000000000000000000000000000000000006112de565b5f906004350282810492830290031415015b815260206040518092030190f35b5f906004350282810492830290031415015b9073ffffffffffffffffffffffffffffffffffffffff331690604435821415611f4f575b60065460015f038114611927576001906003602052016006556044355f5260405f209081549184831061192557845f9303905583600254036002558381527fddf252ad1be2c89b69c2b068fc378daa952ba7f163c4a11628f55a4df523b3ef60405160208160443594030190a36040518260208201526004358152604051917ffbde797d201c681b91056529119e0b02407c7bb96a4a2c75c01fc9667232c8db6044359360408160243595030190a460405160043560248201527fa9059cbb000000000000000000000000000000000000000000000000000000008152602435816004015260205f604473ffffffffffffffffffffffffffffffffffffffff7f0000000000000000000000000000000000000000000000000000000000000000169382855af1905f51913d92816001161590600114601f8511161715610a6d57915050610a73565b503b1517155b61070057611141565b50601f6004360313156015576004356002549081156101e057507f70a082310000000000000000000000000000000000000000000000000000000060805273ffffffffffffffffffffffffffffffffffffffff30166084526020608060248173ffffffffffffffffffffffffffffffffffffffff7f0000000000000000000000000000000000000000000000000000000000000000165afa6117f65750611f34565b50601f6004360313156015576004356002549081156101e057507f70a082310000000000000000000000000000000000000000000000000000000060805273ffffffffffffffffffffffffffffffffffffffff30166084526020608060248173ffffffffffffffffffffffffffffffffffffffff7f0000000000000000000000000000000000000000000000000000000000000000165afa611c885750611f34565b50601f6004360313156015576004356002549081156101e057507f70a082310000000000000000000000000000000000000000000000000000000060805273ffffffffffffffffffffffffffffffffffffffff30166084526020608060248173ffffffffffffffffffffffffffffffffffffffff7f0000000000000000000000000000000000000000000000000000000000000000165afa611e775750611f34565b73ffffffffffffffffffffffffffffffffffffffff602435116015576004355f52600460205260405f2060205273ffffffffffffffffffffffffffffffffffffffff3316805f5260405f20549060015f03821415611b185750505b60036020526004355f5260405f208054604435811061192b576044359003905560036020526024355f5260405f20604435815401905560443560805260243560043561034c565b60025480611cbf57506080600435611d80565b6002545f811415611bc9575073ffffffffffffffffffffffffffffffffffffffff3016608060043591610709565b73ffffffffffffffffffffffffffffffffffffffff6044351160155760025480611a5957506080600435610901565b73ffffffffffffffffffffffffffffffffffffffff6044351160155773ffffffffffffffffffffffffffffffffffffffff331660443581146108675760046020526044355f5260405f20602052805f5260405f205460015f03811415610dda5750610867565b600435811061192b5760046020526044355f5260405f20602052815f52600435900360405f2055610867565b60036020526004355f5260405f20546002548061195b575b506080906108e1565b73ffffffffffffffffffffffffffffffffffffffff602435116015576004355f52600460205260405f206024355f52610f1a565b50603f600436031315601557740100000000000000000000000000000000000000006004351015601557600460205273ffffffffffffffffffffffffffffffffffffffff3316805f5260405f206020526004355f5260243560405f2055602435608052600435907f8c5be1e5ebec7d5bd14f71427d1e84f3dd0314c0f7b2291e5b200ac8c7c3b92561036e565b50601f6004360313156015577401000000000000000000000000000000000000000060043510156015576004355f5260035b60205b5260405f20611549565b50610407565b50601f6004360313156015577401000000000000000000000000000000000000000060043510610e06576015565b50601f60043603131560155774010000000000000000000000000000000000000000600435101560155760036020526004355f610f1d565b50603f6004360313156015577401000000000000000000000000000000000000000060243510610d17576015565b50605f6004360313156015577401000000000000000000000000000000000000000060243510610d74576015565b3d604051601f8160205f038483011601928360405213611010575b50506015565b516108e1565b5f92600435900390556004356002540360025560043581527fddf252ad1be2c89b69c2b068fc378daa952ba7f163c4a11628f55a4df523b3ef60405160208160443594030190a36040516004356020820152828152604051917ffbde797d201c681b91056529119e0b02407c7bb96a4a2c75c01fc9667232c8db6044359360408160243595030190a46040518160248201527fa9059cbb000000000000000000000000000000000000000000000000000000008152602435816004015260205f604473ffffffffffffffffffffffffffffffffffffffff7f0000000000000000000000000000000000000000000000000000000000000000169382855af1905f51913d92816001161590600114601f85111617156111365791505061113c565b503b1517155b610700575b506040517f5452414e534645525f4641494c454400000000000000000000000000000000006044820152600f5b81602401527f08c379a00000000000000000000000000000000000000000000000000000000081526020816004611de0565b50505060806040515b80925b030181204660808301527fc89efdaa54c0f20c7adf612882df0950f5a951637e0307cdcb4c672f298b8bc6606083015260408201527f8b73c3c69bb8fe3d512ecc4cf759cc79239f7b179b0ffacaa9a75d522b39400f602082015260c060a082019173ffffffffffffffffffffffffffffffffffffffff301683526040518093038352019081604052805190602001206108e1565b505060209060806040515b80925b030181204660808301527fc89efdaa54c0f20c7adf612882df0950f5a951637e0307cdcb4c672f298b8bc6606083015260408201527f8b73c3c69bb8fe3d512ecc4cf759cc79239f7b179b0ffacaa9a75d522b39400f8282015260c060a082019173ffffffffffffffffffffffffffffffffffffffff3016835260405180930383520190816040528051908301205b600583526004355f5260405f206044356080840152602435606084015260043560408401527f6e71edae12b1b97f4d1f60370fef10105fa2faae0126114a169c64845d6126c98484015280548060a0850152600101905560c082016064358152604051809103815260e08301604052805190840120907f1901000000000000000000000000000000000000000000000000000000000000610100840152610102830152610122820190815260405180910381525f61014283019182604052805190850120915261016282018060405260c4356101c284015260a4356101a284015260ff60843516610182840152526040516101e2818481039303019060015afa15611f345760405173ffffffffffffffffffffffffffffffffffffffff602082035116600435811415901517611fc95760046020526004355f5260405f206020526024355f5260443560405f20556044358152604051907f8c5be1e5ebec7d5bd14f71427d1e84f3dd0314c0f7b2291e5b200ac8c7c3b9256024359260208160043594030190a3005b5f3560e01c7f94bf804d000000000000000000000000000000000000000000000000000000005f351061154e577fc63d75b6000000000000000000000000000000000000000000000000000000005f3510611635577fd905777e000000000000000000000000000000000000000000000000000000005f35106101a85763ef8b30f681136115315763d905777e8114610f5b5763dd62ed3e1415601557603f6004360313156015577401000000000000000000000000000000000000000060043510610e27576015565b63ef8b30f78114610bc05763fc407ae7141560155760075b5460d2565b7f313ce567000000000000000000000000000000000000000000000000000000005f35106116c6577f4cdad506000000000000000000000000000000000000000000000000000000005f351061037d576370a0823081136115eb57634cdad5068114610a7c57636e553f651415601557603f6004360313156015577401000000000000000000000000000000000000000060243510610d04576015565b6370a082318114610ee857637ecebe001415601557601f6004360313156015577401000000000000000000000000000000000000000060043510156015576004355f526005610f1a565b7fb3d7f6b9000000000000000000000000000000000000000000000000000000005f35106102ad5763ba08765181136116aa5763b3d7f6b98114610b1e5763b460af941415601557605f6004360313156015577401000000000000000000000000000000000000000060243510610d45576015565b63ba0876528114610fc15763bc368a8a14156015576006611549565b7f095ea7b3000000000000000000000000000000000000000000000000000000005f351061043857633fffffff166318160ddc81136117b55763095ea7b38114610e5b57630a28a4771415601557601f6004360313156015576004356002549081156101e057507f70a082310000000000000000000000000000000000000000000000000000000060805273ffffffffffffffffffffffffffffffffffffffff30166084526020608060248173ffffffffffffffffffffffffffffffffffffffff7f0000000000000000000000000000000000000000000000000000000000000000165afa611a225750611f34565b6318160ddd811460a3576323b872dd1415601557605f6004360313156015577401000000000000000000000000000000000000000060043510610c62576015565b3d90604051601f8160205f03858301160193846040521315611eaa57518015611828578060015f030460043511611eaa575b600435611a1b565b7f70a082310000000000000000000000000000000000000000000000000000000060805273ffffffffffffffffffffffffffffffffffffffff30166084526020608060248173ffffffffffffffffffffffffffffffffffffffff7f0000000000000000000000000000000000000000000000000000000000000000165afa156119de573d91604051601f8160205f03868301160194856040521315611a01575180156118e5578060015f030460043511611a01575b60043502045b908115611fa157909160065460015f038114611927576001906003602052016006556044355f5260405f2090815491600435831015611016575b505b505b505b50507f4e487b71000000000000000000000000000000000000000000000000000000005f5260115b60045260245ffd5b7f70a082310000000000000000000000000000000000000000000000000000000060805273ffffffffffffffffffffffffffffffffffffffff30166084526020608060248173ffffffffffffffffffffffffffffffffffffffff7f0000000000000000000000000000000000000000000000000000000000000000165afa6119e5575b5050611f34565b3d91604051601f8160205f038683011601948560405213611a07575b50611eaa565b518015611a1b578060015f03048211611a01575b02046108e1565b3d90604051601f8160205f03858301160193846040521315611eaa5751905f8214158160015f03046004351115166108cf57611eaa565b7f70a082310000000000000000000000000000000000000000000000000000000060805273ffffffffffffffffffffffffffffffffffffffff30166084526020608060248173ffffffffffffffffffffffffffffffffffffffff7f0000000000000000000000000000000000000000000000000000000000000000165afa611ae15750611f34565b3d90604051601f8160205f03858301160193846040521315611eaa5751905f8214158160015f03046004351115166108ef57611eaa565b604435821061192b5760046020526004355f5260405f206020525f52604435900360405f2055610cbd565b5f548060011c6001821690811515611b5957607f165b91600181602085101816611b6d575b50603b565b8291611ff65760808092509283916101005f031683526111ac565b5f548060011c906001811691821515611b9f57607f165b9160018260208510181615611b685761200d57906080602092819283916101005f0316835261124f565b7f70a082310000000000000000000000000000000000000000000000000000000060805273ffffffffffffffffffffffffffffffffffffffff301690816084526020608060248173ffffffffffffffffffffffffffffffffffffffff7f0000000000000000000000000000000000000000000000000000000000000000165afa156119de573d90604051601f8160205f03858301160193846040521315611a01575180611f3c575b5f9060043502828104928302900314150191610709565b3d90604051601f8160205f03858301160193846040521315611eaa575180156108cf578060015f030460043511156108cf57611eaa565b7f70a082310000000000000000000000000000000000000000000000000000000060805273ffffffffffffffffffffffffffffffffffffffff30166084526020608060248173ffffffffffffffffffffffffffffffffffffffff7f0000000000000000000000000000000000000000000000000000000000000000165afa611d475750611f34565b3d90604051601f8160205f03858301160193846040521315611eaa5751905f8214158160015f030460043511151615611eaa5760043502045b90816105805790507f5a45524f5f5348415245530000000000000000000000000000000000000000005b6044820152600b5b60248201527f08c379a000000000000000000000000000000000000000000000000000000000815260206004825b015260646040518092030190fd5b507f70a082310000000000000000000000000000000000000000000000000000000060805273ffffffffffffffffffffffffffffffffffffffff30166084526020608060248173ffffffffffffffffffffffffffffffffffffffff7f0000000000000000000000000000000000000000000000000000000000000000165afa611e775750611f34565b3d90604051601f8160205f03858301160193846040521315611eaa5751905f8214158160015f0304600435111516611828575b5061100a565b507f70a082310000000000000000000000000000000000000000000000000000000060805273ffffffffffffffffffffffffffffffffffffffff30166084526020608060248173ffffffffffffffffffffffffffffffffffffffff7f0000000000000000000000000000000000000000000000000000000000000000165afa610fef575b3d805f803e5ffd5b8060015f030460043511611a0157611c71565b60046020526044355f5260405f20602052815f5260405f205460015f03811415611f795750610925565b83811061192757839060046020526044355f5260405f20602052835f520360405f2055610925565b50507f5a45524f5f415353455453000000000000000000000000000000000000000000611daa565b7f494e56414c49445f5349474e45520000000000000000000000000000000000006044820152600e611db2565b60025f915f805210156120265750506080806111a9565b60025f915f80521015612069575060209060808061124c565b602060017f290decd9548b62a8d60345a988386fc84ba6bc95484008f6362f93160ef3e5635b80546080850152019101828110156111a05790600160209161204c565b602060017f290decd9548b62a8d60345a988386fc84ba6bc95484008f6362f93160ef3e5635b80546080850152019101908282101561124157600160209161208f565b600056fea164736f6c637829736f6c783a302e312e302d616c7068612e323b736f6c633a302e382e32393b6c6c766d3a312e302e320031","linkReferences":{}},"methodIdentifiers":{"DOMAIN_SEPARATOR()":"3644e515","afterDepositHookCalledCounter()":"fc407ae7","allowance(address,address)":"dd62ed3e","approve(address,uint256)":"095ea7b3","asset()":"38d52e0f","balanceOf(address)":"70a08231","beforeWithdrawHookCalledCounter()":"bc368a8a","convertToAssets(uint256)":"07a2d13a","convertToShares(uint256)":"c6e6f592","decimals()":"313ce567","deposit(uint256,address)":"6e553f65","maxDeposit(address)":"402d267d","maxMint(address)":"c63d75b6","maxRedeem(address)":"d905777e","maxWithdraw(address)":"ce96cb77","mint(uint256,address)":"94bf804d","name()":"06fdde03","nonces(address)":"7ecebe00","permit(address,address,uint256,uint256,uint8,bytes32,bytes32)":"d505accf","previewDeposit(uint256)":"ef8b30f7","previewMint(uint256)":"b3d7f6b9","previewRedeem(uint256)":"4cdad506","previewWithdraw(uint256)":"0a28a477","redeem(uint256,address,address)":"ba087652","symbol()":"95d89b41","totalAssets()":"01e1d114","totalSupply()":"18160ddd","transfer(address,uint256)":"a9059cbb","transferFrom(address,address,uint256)":"23b872dd","withdraw(uint256,address,address)":"b460af94"},"id":29}