{"abi":[{"type":"constructor","inputs":[],"stateMutability":"nonpayable"},{"type":"function","name":"allowance","inputs":[{"name":"","type":"address","internalType":"address"},{"name":"","type":"address","internalType":"address"}],"outputs":[{"name":"","type":"uint256","internalType":"uint256"}],"stateMutability":"view"},{"type":"function","name":"approve","inputs":[{"name":"spender","type":"address","internalType":"address"},{"name":"amount","type":"uint256","internalType":"uint256"}],"outputs":[],"stateMutability":"nonpayable"},{"type":"function","name":"balanceOf","inputs":[{"name":"","type":"address","internalType":"address"}],"outputs":[{"name":"","type":"uint256","internalType":"uint256"}],"stateMutability":"view"},{"type":"function","name":"decimals","inputs":[],"outputs":[{"name":"","type":"uint8","internalType":"uint8"}],"stateMutability":"view"},{"type":"function","name":"name","inputs":[],"outputs":[{"name":"","type":"string","internalType":"string"}],"stateMutability":"view"},{"type":"function","name":"setGarbage","inputs":[{"name":"_garbage","type":"bytes","internalType":"bytes"}],"outputs":[],"stateMutability":"nonpayable"},{"type":"function","name":"symbol","inputs":[],"outputs":[{"name":"","type":"string","internalType":"string"}],"stateMutability":"view"},{"type":"function","name":"totalSupply","inputs":[],"outputs":[{"name":"","type":"uint256","internalType":"uint256"}],"stateMutability":"view"},{"type":"function","name":"transfer","inputs":[{"name":"to","type":"address","internalType":"address"},{"name":"amount","type":"uint256","internalType":"uint256"}],"outputs":[],"stateMutability":"nonpayable"},{"type":"function","name":"transferFrom","inputs":[{"name":"from","type":"address","internalType":"address"},{"name":"to","type":"address","internalType":"address"},{"name":"amount","type":"uint256","internalType":"uint256"}],"outputs":[],"stateMutability":"nonpayable"},{"type":"event","name":"Approval","inputs":[{"name":"owner","type":"address","indexed":true,"internalType":"address"},{"name":"spender","type":"address","indexed":true,"internalType":"address"},{"name":"amount","type":"uint256","indexed":false,"internalType":"uint256"}],"anonymous":false},{"type":"event","name":"Transfer","inputs":[{"name":"from","type":"address","indexed":true,"internalType":"address"},{"name":"to","type":"address","indexed":true,"internalType":"address"},{"name":"amount","type":"uint256","indexed":false,"internalType":"uint256"}],"anonymous":false}],"bytecode":{"object":"0x5b60806040525f341415604657600160205260015f03805f5573ffffffffffffffffffffffffffffffffffffffff33165f5260405f2055630000096980630000004f5f395ff35b5f80fd5b600056fe5b60806040525f3414156015576003361161070e575b5f80fd5b50601360805260c06040527f52657475726e7347617262616765546f6b656e0000000000000000000000000060a052602060c052601360e052601360a06101005e5f6101135b52606060c0f35b505f5b545b60805260206080f35b506012606b565b50600360805260c06040527f524754000000000000000000000000000000000000000000000000000000000060a052602060c052600360e052600360a06101005e5f610103605f565b633fffffff166318160ddc81136101dd576306fdde03811460195763095ea7b31415601557603f600436031315601557740100000000000000000000000000000000000000006004351015601557600260205273ffffffffffffffffffffffffffffffffffffffff3316805f5260405f206020526004355f5260243560405f2055602435608052600435907f8c5be1e5ebec7d5bd14f71427d1e84f3dd0314c0f7b2291e5b200ac8c7c3b92560206080a36003548060011c60018216151561018a57607f165b90600181602084101816156102ff575f9160405191602083019360205f03601f8401168501604052828085526101c5575b9392505050610335565b50601f8211610337575b9091506101005f0316825290f35b6318160ddd81146066576323b872dd811461065d57632abbae0f1415601557601f60043603131560155760013660236004350112680100000000000000006004351016141560155760048035013567ffffffffffffffff811115610267575b507f4e487b71000000000000000000000000000000000000000000000000000000005f526041610327565b6801ffffffffffffffe0601f82011667ffffffffffffff4081111561028c575061023c565b6801ffffffffffffffe0603f608092011601604052806080526024600435013682820111156102bb5750506015565b815f9260a092833701526080516801000000000000000081101561023c576003548060011c6001821615156102ee57607f165b906001602083109182181661068b57505b50507f4e487b71000000000000000000000000000000000000000000000000000000005f5260225b60045260245ffd5b50505051905bf35b5060035f5282017fc2575a0e9e593c00f959f8c92f12db2869c3395a3b0502d05e2516446f71f85b6020600185925b805484520191018083111561032f57906001602091610366565b5060035f5282017fc2575a0e9e593c00f959f8c92f12db2869c3395a3b0502d05e2516446f71f85b6020600185925b805484520191018083111561032f579060016020916103af565b5060035f5282017fc2575a0e9e593c00f959f8c92f12db2869c3395a3b0502d05e2516446f71f85b6020600185925b805484520191018083111561032f579060016020916103f8565b73ffffffffffffffffffffffffffffffffffffffff602435116015576004355f52600260205260405f2060205273ffffffffffffffffffffffffffffffffffffffff3316805f5260405f20549060015f038214156107e15750505b60016020526004355f5260405f20805460443581106107ec57604435900390556024355f52600160205260405f2060443581540190556044356080526024356004357fddf252ad1be2c89b69c2b068fc378daa952ba7f163c4a11628f55a4df523b3ef60206080a36003548060011c6001821615156104ea57607f165b90600181602084101816156102ff575f9160405191602083019360205f03601f840116850160405282808552156101bb5750601f8211610380576101cf565b73ffffffffffffffffffffffffffffffffffffffff602435116015576004355f52600260205260405f206024355f5261078a565b50603f600436031315601557740100000000000000000000000000000000000000006004351015601557600160205273ffffffffffffffffffffffffffffffffffffffff3316805f5260405f2080546024358110156105bc57506107ec565b602435900390556004355f52600160205260405f206024358154019055602435608052600435907fddf252ad1be2c89b69c2b068fc378daa952ba7f163c4a11628f55a4df523b3ef60206080a36003548060011c60018216151561061e57607f165b90600181602084101816156102ff575f9160405191602083019360205f03601f840116850160405282808552156101bb5750601f82116103c9576101cf565b50605f6004360313156015577401000000000000000000000000000000000000000060043510610412576015565b15610818575b50601f8111156108b2575f60035f5267ffffffffffffffe08216806108c35790507fc2575a0e9e593c00f959f8c92f12db2869c3395a3b0502d05e2516446f71f85b908260a06106e2565b505060a0015b9114156106f0575050610703565b60015f0360f88460031b161c1990511690555b60019060011b6108ac565b5f3560e01c7f313ce567000000000000000000000000000000000000000000000000000000005f351060c4576395d89b4081136107955763313ce56781146074576370a082311415601557601f6004360313156015577401000000000000000000000000000000000000000060043510156015576004355f5260015b60205260405f206069565b6395d89b418114607b5763a9059cbb811461055d5763dd62ed3e1415601557603f6004360313156015577401000000000000000000000000000000000000000060043510610529576015565b60443582101561090f575b50507f4e487b71000000000000000000000000000000000000000000000000000000005f526011610327565b60035f52601f821115610855577fc2575a0e9e593c00f959f8c92f12db2869c3395a3b0502d05e2516446f71f85b601f8181850160051c0161087a565b7fc2575a0e9e593c00f959f8c92f12db2869c3395a3b0502d05e2516446f71f85b601f815b920160051c019061088e565b6001905f8155015b8181106108865750610691565b60015f038260031b1c19169060011b905b17600355005b805f901561089b575060a05161089b565b827fc2575a0e9e593c00f959f8c92f12db2869c3395a3b0502d05e2516446f71f85b600160205b916080830151815501936020828101910190848210156106dc576001919592506108ea565b60026020526004355f5260405f206020525f52604435900360405f205561046d565b600056fea164736f6c637829736f6c783a302e312e302d616c7068612e323b736f6c633a302e382e32393b6c6c766d3a312e302e320031","linkReferences":{}},"methodIdentifiers":{"allowance(address,address)":"dd62ed3e","approve(address,uint256)":"095ea7b3","balanceOf(address)":"70a08231","decimals()":"313ce567","name()":"06fdde03","setGarbage(bytes)":"2abbae0f","symbol()":"95d89b41","totalSupply()":"18160ddd","transfer(address,uint256)":"a9059cbb","transferFrom(address,address,uint256)":"23b872dd"},"id":35}