{"abi":[{"type":"function","name":"allowance","inputs":[{"name":"","type":"address","internalType":"address"},{"name":"","type":"address","internalType":"address"},{"name":"","type":"uint256","internalType":"uint256"}],"outputs":[{"name":"","type":"uint256","internalType":"uint256"}],"stateMutability":"view"},{"type":"function","name":"approve","inputs":[{"name":"spender","type":"address","internalType":"address"},{"name":"id","type":"uint256","internalType":"uint256"},{"name":"amount","type":"uint256","internalType":"uint256"}],"outputs":[{"name":"","type":"bool","internalType":"bool"}],"stateMutability":"nonpayable"},{"type":"function","name":"balanceOf","inputs":[{"name":"","type":"address","internalType":"address"},{"name":"","type":"uint256","internalType":"uint256"}],"outputs":[{"name":"","type":"uint256","internalType":"uint256"}],"stateMutability":"view"},{"type":"function","name":"burn","inputs":[{"name":"sender","type":"address","internalType":"address"},{"name":"id","type":"uint256","internalType":"uint256"},{"name":"amount","type":"uint256","internalType":"uint256"}],"outputs":[],"stateMutability":"nonpayable"},{"type":"function","name":"isOperator","inputs":[{"name":"","type":"address","internalType":"address"},{"name":"","type":"address","internalType":"address"}],"outputs":[{"name":"","type":"bool","internalType":"bool"}],"stateMutability":"view"},{"type":"function","name":"mint","inputs":[{"name":"receiver","type":"address","internalType":"address"},{"name":"id","type":"uint256","internalType":"uint256"},{"name":"amount","type":"uint256","internalType":"uint256"}],"outputs":[],"stateMutability":"nonpayable"},{"type":"function","name":"setOperator","inputs":[{"name":"operator","type":"address","internalType":"address"},{"name":"approved","type":"bool","internalType":"bool"}],"outputs":[{"name":"","type":"bool","internalType":"bool"}],"stateMutability":"nonpayable"},{"type":"function","name":"supportsInterface","inputs":[{"name":"interfaceId","type":"bytes4","internalType":"bytes4"}],"outputs":[{"name":"","type":"bool","internalType":"bool"}],"stateMutability":"view"},{"type":"function","name":"transfer","inputs":[{"name":"receiver","type":"address","internalType":"address"},{"name":"id","type":"uint256","internalType":"uint256"},{"name":"amount","type":"uint256","internalType":"uint256"}],"outputs":[{"name":"","type":"bool","internalType":"bool"}],"stateMutability":"nonpayable"},{"type":"function","name":"transferFrom","inputs":[{"name":"sender","type":"address","internalType":"address"},{"name":"receiver","type":"address","internalType":"address"},{"name":"id","type":"uint256","internalType":"uint256"},{"name":"amount","type":"uint256","internalType":"uint256"}],"outputs":[{"name":"","type":"bool","internalType":"bool"}],"stateMutability":"nonpayable"},{"type":"event","name":"Approval","inputs":[{"name":"owner","type":"address","indexed":true,"internalType":"address"},{"name":"spender","type":"address","indexed":true,"internalType":"address"},{"name":"id","type":"uint256","indexed":true,"internalType":"uint256"},{"name":"amount","type":"uint256","indexed":false,"internalType":"uint256"}],"anonymous":false},{"type":"event","name":"OperatorSet","inputs":[{"name":"owner","type":"address","indexed":true,"internalType":"address"},{"name":"operator","type":"address","indexed":true,"internalType":"address"},{"name":"approved","type":"bool","indexed":false,"internalType":"bool"}],"anonymous":false},{"type":"event","name":"Transfer","inputs":[{"name":"caller","type":"address","indexed":false,"internalType":"address"},{"name":"from","type":"address","indexed":true,"internalType":"address"},{"name":"to","type":"address","indexed":true,"internalType":"address"},{"name":"id","type":"uint256","indexed":true,"internalType":"uint256"},{"name":"amount","type":"uint256","indexed":false,"internalType":"uint256"}],"anonymous":false}],"bytecode":{"object":"0x5b60806040525f341415601c5763000007cd8063000000255f395ff35b5f80fd5b600056fe5b60806040525f3414156015576003361161062a575b5f80fd5b637fffffff1663095bcdb5811360bc5762fdd58e81146102fd576301ffc9a71415601557601f6004360313156015577bffffffffffffffffffffffffffffffffffffffffffffffffffffffff600435166015577f0f632fb300000000000000000000000000000000000000000000000000000000600435147f01ffc9a700000000000000000000000000000000000000000000000000000000600435141761020a565b63095bcdb681146103485763156e29f681146103f45763426a84931415601557605f600436031315601557740100000000000000000000000000000000000000006004351015601557600260205273ffffffffffffffffffffffffffffffffffffffff3316805f5260405f206020526004355f5260405f206020526024355f5260443560405f205560443560805260243590600435907fb3fd5071835887567a0671151121894ddccc2842f1d10bedad13e0d17cace9a760206102e6565b73ffffffffffffffffffffffffffffffffffffffff6024351160155760026020526004355f5260405f206024355f5260205260405f206044610338565b73ffffffffffffffffffffffffffffffffffffffff602435116015575f6004355f525f60205260405f206020526024355f525f6101000a90816101fb57905061020a565b5060ff5f916040832054041614155b60805260206080f35b73ffffffffffffffffffffffffffffffffffffffff6024351160155773ffffffffffffffffffffffffffffffffffffffff33166004358114156106f0575b60016020526004355f5260405f206020526044355f5260405f20805460643581101561027e575b50610766565b606435900390556024355f52600160205260405f206020526044355f5260405f208054906064358201918210610278575560643560a0526080526044356024356004355b7f1b3d7edb2e9c0b0e7c525b20aaaef0f5940d2ed71663c7d39266ecafac72885960405b6080a45b6040516001815260206040518092030190f35b50603f60043603131560155774010000000000000000000000000000000000000000600435101560155760016020526004355f5260405f2060245b355f5260205260405f205461020a565b50605f600436031315601557740100000000000000000000000000000000000000006004351015601557600160205273ffffffffffffffffffffffffffffffffffffffff3316805f5260405f206020526024355f5260405f208054604435811061027857604435900390556004355f52600160205260405f206020526024355f5260405f208054906044358201918210610278575560443560a0528060805260243590600435906102c2565b50605f6004360313156015577401000000000000000000000000000000000000000060043510156015576004355f52600160205260405f206020526024355f5260405f208054906044358201918210610766575560443560a05273ffffffffffffffffffffffffffffffffffffffff33166080526024356004355f5b7f1b3d7edb2e9c0b0e7c525b20aaaef0f5940d2ed71663c7d39266ecafac72885960406080a4005b50605f6004360313156015577401000000000000000000000000000000000000000060043510156015576004355f52600160205260405f206020526024355f5260405f20805460443581106107665760443560a0526044359003905573ffffffffffffffffffffffffffffffffffffffff33166080526024355f600435610470565b50603f6004360313156015577401000000000000000000000000000000000000000060043510156015576002602435101560155773ffffffffffffffffffffffffffffffffffffffff33165f602052805f5260405f206020525f6101000a5f602435156105845750805b6004355f5260ff60405f20920219825416179055602435608052600435907fceb576d9f15e4e200fdb5096d64d5dfd667e16def20c1eefd14256d8e3faa26760206080a36102ea565b50603f60043603131560155774010000000000000000000000000000000000000000600435106101b7576015565b60026020526004355f5260405f20602052815f5260405f206020526044355f52606435900360405f2055610251565b5f3560e01c7f558a7297000000000000000000000000000000000000000000000000000000005f351060195763b6363cf181136106a35763558a7297811461051a5763598af9e71415601557605f600436031315601557740100000000000000000000000000000000000000006004351061017a576015565b63b6363cf281146105cd5763f5298aca81146104985763fe99049a1415601557607f6004360313156015577401000000000000000000000000000000000000000060043510610213576015565b6004355f525f60205260405f20602052805f525f6101000a806107135750610725565b60ff5f91604083205404161415610251575b60026020526004355f5260405f20602052805f5260405f206020526044355f5260405f205460015f0381141561075b5750610251565b6064358110156105fb575b50507f4e487b71000000000000000000000000000000000000000000000000000000005f52601160045260245ffd5b600056fea164736f6c637829736f6c783a302e312e302d616c7068612e323b736f6c633a302e382e32393b6c6c766d3a312e302e320031","linkReferences":{}},"methodIdentifiers":{"allowance(address,address,uint256)":"598af9e7","approve(address,uint256,uint256)":"426a8493","balanceOf(address,uint256)":"00fdd58e","burn(address,uint256,uint256)":"f5298aca","isOperator(address,address)":"b6363cf2","mint(address,uint256,uint256)":"156e29f6","setOperator(address,bool)":"558a7297","supportsInterface(bytes4)":"01ffc9a7","transfer(address,uint256,uint256)":"095bcdb6","transferFrom(address,address,uint256,uint256)":"fe99049a"},"id":30}