{"abi":[{"type":"function","name":"flag","inputs":[],"outputs":[{"name":"","type":"bool","internalType":"bool"}],"stateMutability":"view"},{"type":"function","name":"owner","inputs":[],"outputs":[{"name":"","type":"address","internalType":"address"}],"stateMutability":"view"},{"type":"function","name":"transferOwnership","inputs":[{"name":"newOwner","type":"address","internalType":"address"}],"outputs":[],"stateMutability":"nonpayable"},{"type":"function","name":"updateFlag","inputs":[],"outputs":[],"stateMutability":"nonpayable"},{"type":"event","name":"OwnershipTransferred","inputs":[{"name":"user","type":"address","indexed":true,"internalType":"address"},{"name":"newOwner","type":"address","indexed":true,"internalType":"address"}],"anonymous":false}],"bytecode":{"object":"0x5b60806040525f3414156080575f6101000a73ffffffffffffffffffffffffffffffffffffffff33169073ffffffffffffffffffffffffffffffffffffffff8183029102195f5416175f555f7f8be0079c531659141344cd1fd0a4f28419497f9722a3daafe3b4186f6b6457e0816080a3630000025a8063000000895f395ff35b5f80fd5b600056fe5b60806040525f34141560145760033611603d575b5f80fd5b60146101000a806101dc57505f6101e7565b60146101000a8060ff02195f5416175f55005b5f3560e01c638da5cb5a8113606457633a7104d1811461013a5763890eba68146018576014565b638da5cb5b81146101f05763f2fde38b1415601457601f60043603131560145773ffffffffffffffffffffffffffffffffffffffff600435116014575f5f6101000a90811560c8575073ffffffffffffffffffffffffffffffffffffffff815f5404165b908173ffffffffffffffffffffffffffffffffffffffff33161460ec575050610184565b73ffffffffffffffffffffffffffffffffffffffff60043582029102195f5416175f55600435907f8be0079c531659141344cd1fd0a4f28419497f9722a3daafe3b4186f6b6457e05f6080a3005b505f5f6101000a8061014c5750610168565b73ffffffffffffffffffffffffffffffffffffffff91505f5404165b73ffffffffffffffffffffffffffffffffffffffff331614602a575b600c60a4527f554e415554484f52495a4544000000000000000000000000000000000000000060c4527f08c379a000000000000000000000000000000000000000000000000000000000608052602060845260646080fd5b60ff5f918254041614155b60805260206080f35b505f5f6101000a8061020257506101e7565b73ffffffffffffffffffffffffffffffffffffffff91505f5404166101e7565b600056fea164736f6c637829736f6c783a302e312e302d616c7068612e323b736f6c633a302e382e32393b6c6c766d3a312e302e320031","linkReferences":{}},"methodIdentifiers":{"flag()":"890eba68","owner()":"8da5cb5b","transferOwnership(address)":"f2fde38b","updateFlag()":"3a7104d1"},"id":32}