{"abi":[{"type":"function","name":"balanceOf","inputs":[{"name":"","type":"address","internalType":"address"},{"name":"","type":"uint256","internalType":"uint256"}],"outputs":[{"name":"","type":"uint256","internalType":"uint256"}],"stateMutability":"view"},{"type":"function","name":"balanceOfBatch","inputs":[{"name":"owners","type":"address[]","internalType":"address[]"},{"name":"ids","type":"uint256[]","internalType":"uint256[]"}],"outputs":[{"name":"balances","type":"uint256[]","internalType":"uint256[]"}],"stateMutability":"view"},{"type":"function","name":"batchBurn","inputs":[{"name":"from","type":"address","internalType":"address"},{"name":"ids","type":"uint256[]","internalType":"uint256[]"},{"name":"amounts","type":"uint256[]","internalType":"uint256[]"}],"outputs":[],"stateMutability":"nonpayable"},{"type":"function","name":"batchMint","inputs":[{"name":"to","type":"address","internalType":"address"},{"name":"ids","type":"uint256[]","internalType":"uint256[]"},{"name":"amounts","type":"uint256[]","internalType":"uint256[]"},{"name":"data","type":"bytes","internalType":"bytes"}],"outputs":[],"stateMutability":"nonpayable"},{"type":"function","name":"burn","inputs":[{"name":"from","type":"address","internalType":"address"},{"name":"id","type":"uint256","internalType":"uint256"},{"name":"amount","type":"uint256","internalType":"uint256"}],"outputs":[],"stateMutability":"nonpayable"},{"type":"function","name":"isApprovedForAll","inputs":[{"name":"","type":"address","internalType":"address"},{"name":"","type":"address","internalType":"address"}],"outputs":[{"name":"","type":"bool","internalType":"bool"}],"stateMutability":"view"},{"type":"function","name":"mint","inputs":[{"name":"to","type":"address","internalType":"address"},{"name":"id","type":"uint256","internalType":"uint256"},{"name":"amount","type":"uint256","internalType":"uint256"},{"name":"data","type":"bytes","internalType":"bytes"}],"outputs":[],"stateMutability":"nonpayable"},{"type":"function","name":"safeBatchTransferFrom","inputs":[{"name":"from","type":"address","internalType":"address"},{"name":"to","type":"address","internalType":"address"},{"name":"ids","type":"uint256[]","internalType":"uint256[]"},{"name":"amounts","type":"uint256[]","internalType":"uint256[]"},{"name":"data","type":"bytes","internalType":"bytes"}],"outputs":[],"stateMutability":"nonpayable"},{"type":"function","name":"safeTransferFrom","inputs":[{"name":"from","type":"address","internalType":"address"},{"name":"to","type":"address","internalType":"address"},{"name":"id","type":"uint256","internalType":"uint256"},{"name":"amount","type":"uint256","internalType":"uint256"},{"name":"data","type":"bytes","internalType":"bytes"}],"outputs":[],"stateMutability":"nonpayable"},{"type":"function","name":"setApprovalForAll","inputs":[{"name":"operator","type":"address","internalType":"address"},{"name":"approved","type":"bool","internalType":"bool"}],"outputs":[],"stateMutability":"nonpayable"},{"type":"function","name":"supportsInterface","inputs":[{"name":"interfaceId","type":"bytes4","internalType":"bytes4"}],"outputs":[{"name":"","type":"bool","internalType":"bool"}],"stateMutability":"view"},{"type":"function","name":"uri","inputs":[{"name":"","type":"uint256","internalType":"uint256"}],"outputs":[{"name":"","type":"string","internalType":"string"}],"stateMutability":"pure"},{"type":"event","name":"ApprovalForAll","inputs":[{"name":"owner","type":"address","indexed":true,"internalType":"address"},{"name":"operator","type":"address","indexed":true,"internalType":"address"},{"name":"approved","type":"bool","indexed":false,"internalType":"bool"}],"anonymous":false},{"type":"event","name":"TransferBatch","inputs":[{"name":"operator","type":"address","indexed":true,"internalType":"address"},{"name":"from","type":"address","indexed":true,"internalType":"address"},{"name":"to","type":"address","indexed":true,"internalType":"address"},{"name":"ids","type":"uint256[]","indexed":false,"internalType":"uint256[]"},{"name":"amounts","type":"uint256[]","indexed":false,"internalType":"uint256[]"}],"anonymous":false},{"type":"event","name":"TransferSingle","inputs":[{"name":"operator","type":"address","indexed":true,"internalType":"address"},{"name":"from","type":"address","indexed":true,"internalType":"address"},{"name":"to","type":"address","indexed":true,"internalType":"address"},{"name":"id","type":"uint256","indexed":false,"internalType":"uint256"},{"name":"amount","type":"uint256","indexed":false,"internalType":"uint256"}],"anonymous":false},{"type":"event","name":"URI","inputs":[{"name":"value","type":"string","indexed":false,"internalType":"string"},{"name":"id","type":"uint256","indexed":true,"internalType":"uint256"}],"anonymous":false}],"bytecode":{"object":"0x5b60806040525f341415601c5763000016fa8063000000255f395ff35b5f80fd5b600056fe5b60806040525f341415601557600336116112c4575b5f80fd5b632eb2c2d58113607a5762fdd58e8114610a50576301ffc9a78114610a9957630e89341c1415601557601f6004360313156015576060518060a052602060805280608060c05e5f8160c0015260c0604051809260205f0390601f0116030190f35b632eb2c2d68114610bce57634e1273f48114610bfc5763731133e91415601557607f6004360313156015577401000000000000000000000000000000000000000060043510156015573660236064350112680100000000000000006064351016156015576004606435013568010000000000000000811015611299576801ffffffffffffffe0601f82011667ffffffffffffff41811061011b575b50611299565b6801ffffffffffffffe0603f608092011601604052806080526024606435013682820111610a0457815f9260a092833701526004355f525f60205260405f206020526024355f5260405f208054604435810190811061038f5760405191604435602084015255602435815273ffffffffffffffffffffffffffffffffffffffff3316905f827fc3d58168c5ae7397731d063d5bbf3d657854427343f4c083240f7aacaa2d0f6260405160408160043596030190a46004353b156107485760405190604435606483015260243582604401527ff23a6e61000000000000000000000000000000000000000000000000000000008252816004015260a081608401525f8160240152602060805191828160a4015260c4018260a0825e5f83820152815f03928391604051928392601f01160103815f6004355af161025d57506114c3565b3d90601f60405180925b848301160192836040521315610a0457517bffffffffffffffffffffffffffffffffffffffffffffffffffffffff8116610a04577ff23a6e61000000000000000000000000000000000000000000000000000000005b14610441575b7f554e534146455f524543495049454e54000000000000000000000000000000006044820152601060248201527f08c379a000000000000000000000000000000000000000000000000000000000815260206004825b015260646040518092030190fd5b73ffffffffffffffffffffffffffffffffffffffff331682600435821415611395575b156103bf575f5b8060051b906004355f525f602052888a83013592013560405f20602052805f5260405f208054848110156113db5750505b5050505b505b50505b5050505b50507f4e487b71000000000000000000000000000000000000000000000000000000005f5260115b60045260245ffd5b8260c0526040608052818760e0376060820160a0528260e0830152858861010084013760405160243590827f4a39dc06d4c0dbc64b70af90fd698a233a518aa5d07e595d983b8c0526c8f7fb60043592808b6101008901010390a45f6024353b14156114155750505050505b5050505f60245b351415610443576040516102c3565b505b005b60a08101604052838060805261049e575b50505050604051602081526080518181809360200152604001911561049457608060016020805f935b01948551815201910192828410611698575091505b5060405180910390f35b3660a0375f5b8060051b90818401357401000000000000000000000000000000000000000081106104d0575b50610ef7565b5f525f60205260405f20828401355f5260205260805181106104f3575b5061109b565b60019160a060405f205491015201908382101561045657906104a4565b60ff9060405f2054041661054d575b505050600e60a4527f4e4f545f415554484f52495a4544000000000000000000000000000000000000610b9c565b6004355f525f60205260405f206020526044355f5260405f208054606435811061038b57606435900390556024355f525f60205260405f206020526044355f5260405f20805490606435820191821061038b575560643560a052604435608052602435600435847fc3d58168c5ae7397731d063d5bbf3d657854427343f4c083240f7aacaa2d0f6260406080a46024353b1561042b576020925f84601f946040519360a060848601526064358560640152604435856044015260043585602401527ff23a6e610000000000000000000000000000000000000000000000000000000085528460040152848460c4019460a401918183528537840101526801ffffffffffffffe060405193849301160103815f6024355af1156114c3573d604051601f8160205f03610267565b6040516040815260805180826040015280826060019161069c57506020906106bf565b60a060016020805f935b805187520194019101928284106116a657509050602091505b73ffffffffffffffffffffffffffffffffffffffff33169282818303910152845191818380935201911561070c575f91600160208087935b845181520192019301908282106116b4579250505b505f827f4a39dc06d4c0dbc64b70af90fd698a233a518aa5d07e595d983b8c0526c8f7fb60405180600435950390a46004353b61150e57505050505b505f6004610432565b6040519060408252608051908183604001528183606001926107d3575b506020928381840391015251918183809352019061080457905b505f9150604051907f4a39dc06d4c0dbc64b70af90fd698a233a518aa5d07e595d983b8c0526c8f7fb600435928073ffffffffffffffffffffffffffffffffffffffff3316930390a4005b60a060016020805f935b805188520195019101938285106107f65750925061076e565b6020806001929693966107dd565b9160016020805f5b9584518152019201930190828210610825579150610788565b602080600192959361080c565b73ffffffffffffffffffffffffffffffffffffffff602435116015573660236044350112680100000000000000006044351016156015576004604435013568010000000000000000811061088557506015565b8060051b6024604435019036818301116116435736602360643501106801000000000000000060643510161561164357600460643501359068010000000000000000821015610ffe578160051b916024606435019436848701116104ca573660236084350110680100000000000000006084351016156104ca57600460843501359268010000000000000000841061091e575b506104ca565b602460843501923685850111156109355750610918565b821461032757505050610b71565b73ffffffffffffffffffffffffffffffffffffffff602435116015575f6004355f52600160205260405f206020526024355f525f6101000a9081610988579050610997565b5060ff5f916040832054041614155b60805260206080f35b73ffffffffffffffffffffffffffffffffffffffff60243511601557366023608435011268010000000000000000608435101615601557600460843501356801000000000000000081106109f357506015565b602460843501368282011115610a0a575b50506015565b73ffffffffffffffffffffffffffffffffffffffff331691600435831461054d5760016020526004355f5260405f20602052825f525f6101000a80610510575b5061051f565b50603f6004360313156015577401000000000000000000000000000000000000000060043510156015576004355f525f60205260405f206024355f5260205260405f2054610997565b50601f6004360313156015577bffffffffffffffffffffffffffffffffffffffffffffffffffffffff600435166015577fd9b67a2600000000000000000000000000000000000000000000000000000000600435147f01ffc9a70000000000000000000000000000000000000000000000000000000060043514177f0e89341c000000000000000000000000000000000000000000000000000000006004351417610997565b600460243501359068010000000000000000821015610ffe57602480350191368160051b840111610ef7578414610445575b50505050600f60a4527f4c454e4754485f4d49534d4154434800000000000000000000000000000000005b60c4527f08c379a000000000000000000000000000000000000000000000000000000000608052602060845260646080fd5b50609f6004360313156015577401000000000000000000000000000000000000000060043510610832576015565b50603f600436031315601557366023600435011268010000000000000000600435101615601557600480350135680100000000000000008110610c3e57506015565b8060051b602460043501903681830111611643573660236024350110680100000000000000006024351016610b3f57611643565b820360648501525181818093526020810192611599579160209691508694935094604095935b608460048201860391015251948592838552015e01905f81830152604051918291845f0390601f01160103815f6004355af1156114c3575b3d604051601f8160205f03848301160192836040521315610a0457517bffffffffffffffffffffffffffffffffffffffffffffffffffffffff8116610a04577fbc197c81000000000000000000000000000000000000000000000000000000006102bd565b50603f60043603131560155774010000000000000000000000000000000000000000600435101560155760026024351015601557600160205273ffffffffffffffffffffffffffffffffffffffff3316805f5260405f206020526004355f525f6101000a5f60243515610da55750805b60ff60405f20920219825416179055602435608052600435907f17307eab39ab6107e8899845ad3d59bd9653f200f220920489ca2b5937696c3160206080a3005b3660236044350112680100000000000000006044351016156015576004604435013568010000000000000000811015611299578060051b9060405191683fffffffffffffffe0603f8201168301838110156801000000000000000082101615610fdf5760405281835260246044350190810190368211610ffe5760208401926115da575b5050366023606435011268010000000000000000606435101615610a045760046064350135916801000000000000000083101561162157604051916803ffffffffffffffe0603f6801ffffffffffffffe0601f870116011683018381101568010000000000000000821016610edf5750610fdf565b60405283835260246064350193368186011115610efd575b50610ffe565b602084825f9383830198893701015260805182518114610f1e575050611025565b80610f295750610679565b5f5b83518110610f3957506104ed565b8060051b9060a082850151926004355f525f602052015160405f206020525f5260405f20918254908101908110610386576001925501818110610f2b575050610679565b3660236044350112680100000000000000006044351016156015576004604435013568010000000000000000811015611299578060051b60405190683fffffffffffffffe0603f82011682018281101568010000000000000000821016610fe5575b50611621565b6040528282526024604435019081019036821115611004575b50611643565b602083019361167a5750505f61101b565b50505080515b8060805114611085575b5050506040517f4c454e4754485f4d49534d4154434800000000000000000000000000000000006044820152600f81602401527f08c379a00000000000000000000000000000000000000000000000000000000081526020816004610319565b806110905750610751565b5f5b825181106114cb575b505050507f4e487b71000000000000000000000000000000000000000000000000000000005f5260326103b7565b50607f6004360313156015577401000000000000000000000000000000000000000060043510156015573660236024350112680100000000000000006024351016156015576004602435013568010000000000000000811015611299578060051b683fffffffffffffffe0603f82011667ffffffffffffff8081101561162157608090838252016040526024803501908101913683116116435761116f575b5050610de6565b60208060a05b833581520191018281101561118e579060208091611175565b50611168565b50609f60043603131560155774010000000000000000000000000000000000000000600435106109a0576015565b50605f6004360313156015577401000000000000000000000000000000000000000060043510156015576004355f525f60205260405f206020526024355f5260405f208054604435811061038f5760443560a052604435900390556024356080525f60043573ffffffffffffffffffffffffffffffffffffffff33167fc3d58168c5ae7397731d063d5bbf3d657854427343f4c083240f7aacaa2d0f6260406080a4005b366023602435011268010000000000000000602435101615601557600460243501356801000000000000000081106115fe575b507f4e487b71000000000000000000000000000000000000000000000000000000005f5260416103b7565b5f3560e01c7fa22cb465000000000000000000000000000000000000000000000000000000005f351060195763f242432981136113485763a22cb4658114610d355763b48ab8b681146110c95763e985e9c51415601557603f6004360313156015577401000000000000000000000000000000000000000060043510610943576015565b63f242432a81146111945763f5298aca81146111c25763f6eb127a1415601557605f6004360313156015577401000000000000000000000000000000000000000060043510611266576015565b5060016020526004355f5260405f20602052805f525f6101000a806113ba57506113cc565b60ff5f916040832054041614156113d5575b50505050610a4a565b8261034a565b84900390556024355f525f60205260405f206020525f5260405f2091825490810190811061038257600192550183811061035157506103bf565b846040875f9a95601f998c97848860209e998f9a83519a60a060448d01526004358c602401527fbc197c81000000000000000000000000000000000000000000000000000000008c528b60040152868b60a401528a60c4013760a48901018981019460048a0186038a60640152855201370184810193600481018503906084015201948183528537840101526801ffffffffffffffe06040519384930116010381846024355af11415610cd0575b3d805f803e5ffd5b8060051b9060a082860151926004355f525f602052015160405f206020525f5260405f208054928084106103885760019303905501818110611092575050610751565b6040519260a09160a060448601525f85602401527fbc197c8100000000000000000000000000000000000000000000000000000000855284600401906004860152608051808660a40152808660c401906115685793611592565b9060016020805f5b978051865201930195019181831015611590576020806001929794611570565b505b5050610c72565b5092905f949294905b85518152600160208083019701920190948691818110156115c75792965094506115a2565b5050505091602094604094928694610c98565b602080845b83358152019101828110156115f85790602080916115df565b50610e6a565b8060051b683fffffffffffffffe0603f82011667ffffffffffffff808110611627575b50610115565b6080908382520160405260248035019081019136831115611649575b50610a04565b611655575b5050610f7d565b60208060a05b833581520191018281101561167457906020809161165b565b5061164e565b602080855b833581520191018281101561101557906020809161167f565b60208060019295939561047f565b6020806001929593956106a6565b6020806001929593956106f7565b600056fea164736f6c637829736f6c783a302e312e302d616c7068612e323b736f6c633a302e382e32393b6c6c766d3a312e302e320031","linkReferences":{}},"methodIdentifiers":{"balanceOf(address,uint256)":"00fdd58e","balanceOfBatch(address[],uint256[])":"4e1273f4","batchBurn(address,uint256[],uint256[])":"f6eb127a","batchMint(address,uint256[],uint256[],bytes)":"b48ab8b6","burn(address,uint256,uint256)":"f5298aca","isApprovedForAll(address,address)":"e985e9c5","mint(address,uint256,uint256,bytes)":"731133e9","safeBatchTransferFrom(address,address,uint256[],uint256[],bytes)":"2eb2c2d6","safeTransferFrom(address,address,uint256,uint256,bytes)":"f242432a","setApprovalForAll(address,bool)":"a22cb465","supportsInterface(bytes4)":"01ffc9a7","uri(uint256)":"0e89341c"},"id":27}