{"abi":[{"type":"constructor","inputs":[{"name":"_allowCalls","type":"bool","internalType":"bool"}],"stateMutability":"nonpayable"},{"type":"function","name":"canCall","inputs":[{"name":"","type":"address","internalType":"address"},{"name":"","type":"address","internalType":"address"},{"name":"","type":"bytes4","internalType":"bytes4"}],"outputs":[{"name":"","type":"bool","internalType":"bool"}],"stateMutability":"view"}],"bytecode":{"object":"0x5b60a06040525f34141560335760206300000187803803809160a03960a081016040521260335760a0516001811115603757505b5f80fd5b600114806080526300000130908163000000575f39605b525ff35b600056fe5b60806040525f341415601457600336116085575b5f80fd5b73ffffffffffffffffffffffffffffffffffffffff602435116014577bffffffffffffffffffffffffffffffffffffffffffffffffffffffff604435166014575f7f0000000000000000000000000000000000000000000000000000000000000000141560805260206080f35b605f60043603137fb7009613000000000000000000000000000000000000000000000000000000007fffffffff000000000000000000000000000000000000000000000000000000005f351614161560145774010000000000000000000000000000000000000000600435106018576014565b600056fea164736f6c637829736f6c783a302e312e302d616c7068612e323b736f6c633a302e382e32393b6c6c766d3a312e302e320031","linkReferences":{}},"methodIdentifiers":{"canCall(address,address,bytes4)":"b7009613"},"id":26}