{"abi":[{"type":"function","name":"authority","inputs":[],"outputs":[{"name":"","type":"address","internalType":"contract Authority"}],"stateMutability":"view"},{"type":"function","name":"flag","inputs":[],"outputs":[{"name":"","type":"bool","internalType":"bool"}],"stateMutability":"view"},{"type":"function","name":"owner","inputs":[],"outputs":[{"name":"","type":"address","internalType":"address"}],"stateMutability":"view"},{"type":"function","name":"setAuthority","inputs":[{"name":"newAuthority","type":"address","internalType":"contract Authority"}],"outputs":[],"stateMutability":"nonpayable"},{"type":"function","name":"transferOwnership","inputs":[{"name":"newOwner","type":"address","internalType":"address"}],"outputs":[],"stateMutability":"nonpayable"},{"type":"function","name":"updateFlag","inputs":[],"outputs":[],"stateMutability":"nonpayable"},{"type":"event","name":"AuthorityUpdated","inputs":[{"name":"user","type":"address","indexed":true,"internalType":"address"},{"name":"newAuthority","type":"address","indexed":true,"internalType":"contract Authority"}],"anonymous":false},{"type":"event","name":"OwnershipTransferred","inputs":[{"name":"user","type":"address","indexed":true,"internalType":"address"},{"name":"newOwner","type":"address","indexed":true,"internalType":"address"}],"anonymous":false}],"bytecode":{"object":"0x5b60806040525f34141560b0575f806101000a73ffffffffffffffffffffffffffffffffffffffff810219806001541660015573ffffffffffffffffffffffffffffffffffffffff33169182029083541617825580807f8be0079c531659141344cd1fd0a4f28419497f9722a3daafe3b4186f6b6457e0846080a37fa3396fd7f6e0a21b50e5089d2da70d5ac0a3bbbd1f617a93f134b7638998019882604051a3630000065d8063000000b95f395ff35b5f80fd5b600056fe5b60806040525f34141560155760033611610122575b5f80fd5b505f5f6101000a90816103785790506080906103b8565b60146101000a8061030057505f61030c565b50601f60043603131560155773ffffffffffffffffffffffffffffffffffffffff600435116015575f5f6101000a90816101ae5773ffffffffffffffffffffffffffffffffffffffff33169081156102ad576080606481602093610212565b3d91604051601f8160205f03868301160194856040521360c2575b506102a6565b51600281101560bc5760d55790506104cf565b73ffffffffffffffffffffffffffffffffffffffff60043582029102195f5416175f557f8be0079c531659141344cd1fd0a4f28419497f9722a3daafe3b4186f6b6457e05b5f60043593a3005b5f3560e01c638da5cb5a811361015357633a7104d18114601957637a9e5e4b811460425763890eba68146030576015565b638da5cb5b81146103155763bf7e214f81146103485763f2fde38b1415601557601f60043603131560155773ffffffffffffffffffffffffffffffffffffffff600435116015575f5f6101000a90816104a9576080916104eb565b5073ffffffffffffffffffffffffffffffffffffffff331673ffffffffffffffffffffffffffffffffffffffff825f5404168114156101ef576080916102b5565b6020608060648173ffffffffffffffffffffffffffffffffffffffff8660015404165b73ffffffffffffffffffffffffffffffffffffffff301660a4527fb7009613000000000000000000000000000000000000000000000000000000008252856084527fffffffff000000000000000000000000000000000000000000000000000000005f351660c4525afa156105ff573d91604051601f8160205f0386830116019485604052131560bc5760019051146102b5575b5050506015565b50506080905f905b73ffffffffffffffffffffffffffffffffffffffff600435820291021960015416176001557fa3396fd7f6e0a21b50e5089d2da70d5ac0a3bbbd1f617a93f134b7638998019861011a565b60ff5f91600154041614155b60805260206080f35b505f5f6101000a80610327575061030c565b73ffffffffffffffffffffffffffffffffffffffff91505f5b54041661030c565b505f5f6101000a8061035a575061030c565b73ffffffffffffffffffffffffffffffffffffffff91506001610340565b5073ffffffffffffffffffffffffffffffffffffffff816001540416806103d9575073ffffffffffffffffffffffffffffffffffffffff6080915b5f5404165b73ffffffffffffffffffffffffffffffffffffffff3316146104935761050b565b60806064816020937fffffffff000000000000000000000000000000000000000000000000000000005f351660c45273ffffffffffffffffffffffffffffffffffffffff301660a4527fb700961300000000000000000000000000000000000000000000000000000000825273ffffffffffffffffffffffffffffffffffffffff33166084525afa15610601573d90604051601f8160205f038583011601938460405213156102a6575160028110156102a6571561060a57505b5060146101000a8060ff02196001541617600155005b5073ffffffffffffffffffffffffffffffffffffffff8160015404168061056e57506080905b73ffffffffffffffffffffffffffffffffffffffff815f540416905b73ffffffffffffffffffffffffffffffffffffffff331691821460d55750505b7f554e415554484f52495a454400000000000000000000000000000000000000006044820152600c60248201527f08c379a00000000000000000000000000000000000000000000000000000000081526020600482015260646040518092030190fd5b7fffffffff000000000000000000000000000000000000000000000000000000005f351660c45273ffffffffffffffffffffffffffffffffffffffff301660a4527fb7009613000000000000000000000000000000000000000000000000000000006080525f6020608060648173ffffffffffffffffffffffffffffffffffffffff331695866084525afa141560a1575b505b503d805f803e5ffd5b73ffffffffffffffffffffffffffffffffffffffff906103b3565b600056fea164736f6c637829736f6c783a302e312e302d616c7068612e323b736f6c633a302e382e32393b6c6c766d3a312e302e320031","linkReferences":{}},"methodIdentifiers":{"authority()":"bf7e214f","flag()":"890eba68","owner()":"8da5cb5b","setAuthority(address)":"7a9e5e4b","transferOwnership(address)":"f2fde38b","updateFlag()":"3a7104d1"},"id":25}