{"abi":[{"type":"constructor","inputs":[{"name":"_owner","type":"address","internalType":"address"},{"name":"_authority","type":"address","internalType":"contract Authority"}],"stateMutability":"nonpayable"},{"type":"function","name":"authority","inputs":[],"outputs":[{"name":"","type":"address","internalType":"contract Authority"}],"stateMutability":"view"},{"type":"function","name":"canCall","inputs":[{"name":"user","type":"address","internalType":"address"},{"name":"target","type":"address","internalType":"address"},{"name":"functionSig","type":"bytes4","internalType":"bytes4"}],"outputs":[{"name":"","type":"bool","internalType":"bool"}],"stateMutability":"view"},{"type":"function","name":"doesRoleHaveCapability","inputs":[{"name":"role","type":"uint8","internalType":"uint8"},{"name":"functionSig","type":"bytes4","internalType":"bytes4"}],"outputs":[{"name":"","type":"bool","internalType":"bool"}],"stateMutability":"view"},{"type":"function","name":"doesUserHaveRole","inputs":[{"name":"user","type":"address","internalType":"address"},{"name":"role","type":"uint8","internalType":"uint8"}],"outputs":[{"name":"","type":"bool","internalType":"bool"}],"stateMutability":"view"},{"type":"function","name":"getRolesWithCapability","inputs":[{"name":"","type":"bytes4","internalType":"bytes4"}],"outputs":[{"name":"","type":"bytes32","internalType":"bytes32"}],"stateMutability":"view"},{"type":"function","name":"getTargetCustomAuthority","inputs":[{"name":"","type":"address","internalType":"address"}],"outputs":[{"name":"","type":"address","internalType":"contract Authority"}],"stateMutability":"view"},{"type":"function","name":"getUserRoles","inputs":[{"name":"","type":"address","internalType":"address"}],"outputs":[{"name":"","type":"bytes32","internalType":"bytes32"}],"stateMutability":"view"},{"type":"function","name":"isCapabilityPublic","inputs":[{"name":"","type":"bytes4","internalType":"bytes4"}],"outputs":[{"name":"","type":"bool","internalType":"bool"}],"stateMutability":"view"},{"type":"function","name":"owner","inputs":[],"outputs":[{"name":"","type":"address","internalType":"address"}],"stateMutability":"view"},{"type":"function","name":"setAuthority","inputs":[{"name":"newAuthority","type":"address","internalType":"contract Authority"}],"outputs":[],"stateMutability":"nonpayable"},{"type":"function","name":"setPublicCapability","inputs":[{"name":"functionSig","type":"bytes4","internalType":"bytes4"},{"name":"enabled","type":"bool","internalType":"bool"}],"outputs":[],"stateMutability":"nonpayable"},{"type":"function","name":"setRoleCapability","inputs":[{"name":"role","type":"uint8","internalType":"uint8"},{"name":"functionSig","type":"bytes4","internalType":"bytes4"},{"name":"enabled","type":"bool","internalType":"bool"}],"outputs":[],"stateMutability":"nonpayable"},{"type":"function","name":"setTargetCustomAuthority","inputs":[{"name":"target","type":"address","internalType":"address"},{"name":"customAuthority","type":"address","internalType":"contract Authority"}],"outputs":[],"stateMutability":"nonpayable"},{"type":"function","name":"setUserRole","inputs":[{"name":"user","type":"address","internalType":"address"},{"name":"role","type":"uint8","internalType":"uint8"},{"name":"enabled","type":"bool","internalType":"bool"}],"outputs":[],"stateMutability":"nonpayable"},{"type":"function","name":"transferOwnership","inputs":[{"name":"newOwner","type":"address","internalType":"address"}],"outputs":[],"stateMutability":"nonpayable"},{"type":"event","name":"AuthorityUpdated","inputs":[{"name":"user","type":"address","indexed":true,"internalType":"address"},{"name":"newAuthority","type":"address","indexed":true,"internalType":"contract Authority"}],"anonymous":false},{"type":"event","name":"OwnershipTransferred","inputs":[{"name":"user","type":"address","indexed":true,"internalType":"address"},{"name":"newOwner","type":"address","indexed":true,"internalType":"address"}],"anonymous":false},{"type":"event","name":"PublicCapabilityUpdated","inputs":[{"name":"functionSig","type":"bytes4","indexed":true,"internalType":"bytes4"},{"name":"enabled","type":"bool","indexed":false,"internalType":"bool"}],"anonymous":false},{"type":"event","name":"RoleCapabilityUpdated","inputs":[{"name":"role","type":"uint8","indexed":true,"internalType":"uint8"},{"name":"functionSig","type":"bytes4","indexed":true,"internalType":"bytes4"},{"name":"enabled","type":"bool","indexed":false,"internalType":"bool"}],"anonymous":false},{"type":"event","name":"TargetCustomAuthorityUpdated","inputs":[{"name":"target","type":"address","indexed":true,"internalType":"address"},{"name":"authority","type":"address","indexed":true,"internalType":"contract Authority"}],"anonymous":false},{"type":"event","name":"UserRoleUpdated","inputs":[{"name":"user","type":"address","indexed":true,"internalType":"address"},{"name":"role","type":"uint8","indexed":true,"internalType":"uint8"},{"name":"enabled","type":"bool","indexed":false,"internalType":"bool"}],"anonymous":false}],"bytecode":{"object":"0x5b60806040525f341415602b57630000120a8038038091608039604060808201918282521215602f575b505b5f80fd5b6080519073ffffffffffffffffffffffffffffffffffffffff8211156054575b506029565b60a0519173ffffffffffffffffffffffffffffffffffffffff83111560785750604f565b5f91826101000a8273ffffffffffffffffffffffffffffffffffffffff8202199186810283600154161760015502908454161783557f8be0079c531659141344cd1fd0a4f28419497f9722a3daafe3b4186f6b6457e073ffffffffffffffffffffffffffffffffffffffff3316938492a37fa3396fd7f6e0a21b50e5089d2da70d5ac0a3bbbd1f617a93f134b763899801985f604051a363000010e68063000001245f395ff35b600056fe5b60806040525f34141560155760033611610481575b5f80fd5b63bf7e214e811361012657638da5cb5b81146107d85763b70096131415601557605f60043603131560155773ffffffffffffffffffffffffffffffffffffffff6004351160155773ffffffffffffffffffffffffffffffffffffffff602435116015577bffffffffffffffffffffffffffffffffffffffffffffffffffffffff6044351660155760026020526024355f525f6101000a801561103d5773ffffffffffffffffffffffffffffffffffffffff8160405f2054041690811561101f5750608060648160209360243560a45260443560c4527fb70096130000000000000000000000000000000000000000000000000000000082526004356084525afa610807575b3d805f803e5ffd5b63bf7e214f81146108455763c53a39851415601557601f60043603131560155774010000000000000000000000000000000000000000600435101560155760026020525f6004355f525f6101000a8061017f57506101a0565b73ffffffffffffffffffffffffffffffffffffffff915060405f205b54045b165b60805260206080f35b637fffffff166306a36aee811461028457630bade8a481146102c357630ea9b75b1415601557605f60043603131560155761010060043510156015577bffffffffffffffffffffffffffffffffffffffffffffffffffffffff60243516601557600260443510156015575f5f6101000a90816108755790506080906108b5565b60046020525f6024351561023a5750805b6004355f5260ff60405f2092021982541617905560243581527f36d28126bef21a4f3765d7fcb7c45cead463ae4c41094ef3b771ede59854410360405160208160043594030190a2005b50601f6004360313156015577401000000000000000000000000000000000000000060043510156015576004355f5260035b60205260405f20546101a0565b50601f6004360313156015577bffffffffffffffffffffffffffffffffffffffffffffffffffffffff6004351660155760046020525f6004355f525f6101000a90816103105790506101a0565b5060ff5f916040832054041614156101a0565b50601f6004360313156015577bffffffffffffffffffffffffffffffffffffffffffffffffffffffff600435166015576004355f5260056102b6565b7bffffffffffffffffffffffffffffffffffffffffffffffffffffffff6024351660155760056020526024355f52600160405f205460045b351c61019e565b50603f6004360313156015577bffffffffffffffffffffffffffffffffffffffffffffffffffffffff60043516601557600260243510156015575f5f6101000a9081610a525790608091610b54565b600260443510156015575f5f6101000a9081610b77579050608090610bb7565b50603f60043603131560155773ffffffffffffffffffffffffffffffffffffffff6004351160155773ffffffffffffffffffffffffffffffffffffffff602435116015575f5f6101000a9081610cf55790608091610d36565b50603f6004360313156015576101006004351061035f576015565b5f3560e01c7f8da5cb5b000000000000000000000000000000000000000000000000000000005f3510610591577fe688747b000000000000000000000000000000000000000000000000000000005f351060195763ed0d0efa811361053f5763e688747b81146104665763ea7ca2761415601557603f60043603131560155773ffffffffffffffffffffffffffffffffffffffff60043511601557610100602435101560155760036020526004355f52600160405f20546024610397565b63ed0d0efb81146103235763f2fde38b1415601557601f6004360313156015577401000000000000000000000000000000000000000060043510156015575f5f6101000a9081610e7557608091610eb9565b7f4b5159da000000000000000000000000000000000000000000000000000000005f35106101a95763728b952a811361060f57634b5159da811461039e576367aff4841415601557605f60043603131560155773ffffffffffffffffffffffffffffffffffffffff60043511601557610100602435106103ed576015565b63728b952b811461040d57637a9e5e4b1415601557601f60043603131560155773ffffffffffffffffffffffffffffffffffffffff600435116015575f5f6101000a90816106825773ffffffffffffffffffffffffffffffffffffffff33169081156107815760806064816020936106e6565b5073ffffffffffffffffffffffffffffffffffffffff331673ffffffffffffffffffffffffffffffffffffffff825f5404168114156106c357608091610789565b6020608060648173ffffffffffffffffffffffffffffffffffffffff8660015404165b73ffffffffffffffffffffffffffffffffffffffff301660a4527fb7009613000000000000000000000000000000000000000000000000000000008252856084527fffffffff000000000000000000000000000000000000000000000000000000005f351660c4525afa15610f6c573d91604051601f8160205f03868301160194856040521315610f8f576001905114610789575b50610822565b50506080905f905b73ffffffffffffffffffffffffffffffffffffffff600435820291021960015416176001557fa3396fd7f6e0a21b50e5089d2da70d5ac0a3bbbd1f617a93f134b763899801985b5f60043593a3005b505f5f6101000a806107ea57506101a0565b73ffffffffffffffffffffffffffffffffffffffff91505f61019b565b3d604051601f8160205f038483011601928360405213610828575b50506015565b516002811015610822575f905b1415815260206040518092030190f35b505f5f6101000a8061085757506101a0565b73ffffffffffffffffffffffffffffffffffffffff9150600161019b565b5073ffffffffffffffffffffffffffffffffffffffff81600154041680610935575073ffffffffffffffffffffffffffffffffffffffff6080915b5f5404165b73ffffffffffffffffffffffffffffffffffffffff3316146109f4575b7f554e415554484f52495a454400000000000000000000000000000000000000006044820152600c60248201527f08c379a00000000000000000000000000000000000000000000000000000000081526020600482015260646040518092030190fd5b60806064816020937f7fffffff000000000000000000000000000000000000000000000000000000005f351660c45273ffffffffffffffffffffffffffffffffffffffff301660a4527fb700961300000000000000000000000000000000000000000000000000000000825273ffffffffffffffffffffffffffffffffffffffff33166084525afa6109c7575061011e565b3d90604051601f8160205f0385830116019384604052131561077b5751600281101561077b571561106957505b60ff600435166001811b60443515610fef5760056020526024355f5260405f20908154175b905560443582527fbfe16b2c35ce23dfd1ab0e7b5d086a10060c9b52d1574e1680c881b3b3a2b151604051602081602435955b030190a3005b5073ffffffffffffffffffffffffffffffffffffffff81600154041680610a7c5750608090610b39565b60806064816020937fffffffff000000000000000000000000000000000000000000000000000000005f351660c45273ffffffffffffffffffffffffffffffffffffffff301660a4527fb700961300000000000000000000000000000000000000000000000000000000825273ffffffffffffffffffffffffffffffffffffffff33166084525afa610b0e575061011e565b3d90604051601f8160205f0385830116019384604052131561077b5751600281101561077b57610229575b73ffffffffffffffffffffffffffffffffffffffff815f5404165b73ffffffffffffffffffffffffffffffffffffffff331614610229575b506108d2565b5073ffffffffffffffffffffffffffffffffffffffff81600154041680610bd9575073ffffffffffffffffffffffffffffffffffffffff6080915b5f5404165b73ffffffffffffffffffffffffffffffffffffffff331614156108d257610c98565b60806064816020937fffffffff000000000000000000000000000000000000000000000000000000005f351660c45273ffffffffffffffffffffffffffffffffffffffff301660a4527fb700961300000000000000000000000000000000000000000000000000000000825273ffffffffffffffffffffffffffffffffffffffff33166084525afa610c6b575061011e565b3d90604051601f8160205f0385830116019384604052131561077b5751600281101561077b571561108457505b60ff60243516906001821b604435156110075760036020526004355f5260405f20908154175b905560443581527f4c9bdd0c8e073eb5eda2250b18d8e5121ff27b62064fbeeeed4869bb99bc5bf260405160208160043594610a4c565b5073ffffffffffffffffffffffffffffffffffffffff81600154041680610d5857506080905b73ffffffffffffffffffffffffffffffffffffffff815f5404165b73ffffffffffffffffffffffffffffffffffffffff33161415610b7157610e16565b60806064816020937fffffffff000000000000000000000000000000000000000000000000000000005f351660c45273ffffffffffffffffffffffffffffffffffffffff301660a4527fb700961300000000000000000000000000000000000000000000000000000000825273ffffffffffffffffffffffffffffffffffffffff33166084525afa610dea575061011e565b3d90604051601f8160205f0385830116019384604052131561077b5751600281101561077b5715610d1b575b60026020526004355f5260405f209073ffffffffffffffffffffffffffffffffffffffff6024358202910219825416179055602435907fa4908e11a5f895b13d51526c331ac93cdd30e59772361c5d07874eb36bff20655f60043592a3005b5073ffffffffffffffffffffffffffffffffffffffff8160015404169081610edd5790506080905b73ffffffffffffffffffffffffffffffffffffffff815f540416905b73ffffffffffffffffffffffffffffffffffffffff3316918214610fa65750610b71565b7fffffffff000000000000000000000000000000000000000000000000000000005f351660c45273ffffffffffffffffffffffffffffffffffffffff301660a4527fb7009613000000000000000000000000000000000000000000000000000000006080526020608060648173ffffffffffffffffffffffffffffffffffffffff331695866084525afa610f73575b505061011e565b3d91604051601f8160205f038683011601948560405213610f95575b5061077b565b516002811015610f8f571561109f57905b73ffffffffffffffffffffffffffffffffffffffff60043582029102195f5416175f557f8be0079c531659141344cd1fd0a4f28419497f9722a3daafe3b4186f6b6457e06107d0565b60056020526024355f5260405f209019815416610a19565b60036020526004355f5260405f209019815416610cbe565b60ff915060046020526044355f5260405f205404165f8114156110a5575b5060056020526044355f5260405f2060036020526004355f525f80608092546040822054161415610835565b73ffffffffffffffffffffffffffffffffffffffff906108b0565b73ffffffffffffffffffffffffffffffffffffffff90610bb2565b50610e9d565b5f608091610835565b600056fea164736f6c637829736f6c783a302e312e302d616c7068612e323b736f6c633a302e382e32393b6c6c766d3a312e302e320031","linkReferences":{}},"methodIdentifiers":{"authority()":"bf7e214f","canCall(address,address,bytes4)":"b7009613","doesRoleHaveCapability(uint8,bytes4)":"e688747b","doesUserHaveRole(address,uint8)":"ea7ca276","getRolesWithCapability(bytes4)":"ed0d0efb","getTargetCustomAuthority(address)":"c53a3985","getUserRoles(address)":"06a36aee","isCapabilityPublic(bytes4)":"0bade8a4","owner()":"8da5cb5b","setAuthority(address)":"7a9e5e4b","setPublicCapability(bytes4,bool)":"4b5159da","setRoleCapability(uint8,bytes4,bool)":"0ea9b75b","setTargetCustomAuthority(address,address)":"728b952b","setUserRole(address,uint8,bool)":"67aff484","transferOwnership(address)":"f2fde38b"},"id":3}